{
	"contracts/babushka.sol": {
		"GrandmaGift": {
			"abi": [
				{
					"inputs": [],
					"name": "giftAmount",
					"outputs": [
						{
							"internalType": "uint256",
							"name": "",
							"type": "uint256"
						}
					],
					"stateMutability": "view",
					"type": "function"
				},
				{
					"inputs": [
						{
							"internalType": "address",
							"name": "",
							"type": "address"
						}
					],
					"name": "grandchildren",
					"outputs": [
						{
							"internalType": "address",
							"name": "wallet",
							"type": "address"
						},
						{
							"internalType": "uint256",
							"name": "birthday",
							"type": "uint256"
						},
						{
							"internalType": "bool",
							"name": "withdrawn",
							"type": "bool"
						}
					],
					"stateMutability": "view",
					"type": "function"
				},
				{
					"inputs": [
						{
							"internalType": "uint256",
							"name": "",
							"type": "uint256"
						}
					],
					"name": "list",
					"outputs": [
						{
							"internalType": "address",
							"name": "",
							"type": "address"
						}
					],
					"stateMutability": "view",
					"type": "function"
				},
				{
					"inputs": [
						{
							"internalType": "address[]",
							"name": "_wallets",
							"type": "address[]"
						},
						{
							"internalType": "uint256[]",
							"name": "_birthdays",
							"type": "uint256[]"
						}
					],
					"name": "setupGifts",
					"outputs": [],
					"stateMutability": "payable",
					"type": "function"
				},
				{
					"inputs": [],
					"name": "withdrawGift",
					"outputs": [],
					"stateMutability": "nonpayable",
					"type": "function"
				}
			],
			"devdoc": {
				"kind": "dev",
				"methods": {},
				"version": 1
			},
			"evm": {
				"assembly": "    /* \"contracts/babushka.sol\":60:1185  contract GrandmaGift {... */\n  mstore(0x40, 0x80)\n  callvalue\n  dup1\n  iszero\n  tag_1\n  jumpi\n  revert(0x00, 0x00)\ntag_1:\n  pop\n  dataSize(sub_0)\n  dup1\n  dataOffset(sub_0)\n  0x00\n  codecopy\n  0x00\n  return\nstop\n\nsub_0: assembly {\n        /* \"contracts/babushka.sol\":60:1185  contract GrandmaGift {... */\n      mstore(0x40, 0x80)\n      jumpi(tag_1, lt(calldatasize, 0x04))\n      shr(0xe0, calldataload(0x00))\n      dup1\n      0x124a07e5\n      eq\n      tag_2\n      jumpi\n      dup1\n      0x80c9419e\n      eq\n      tag_3\n      jumpi\n      dup1\n      0x940af594\n      eq\n      tag_4\n      jumpi\n      dup1\n      0xb0ebb261\n      eq\n      tag_5\n      jumpi\n      dup1\n      0xea3e6718\n      eq\n      tag_6\n      jumpi\n    tag_1:\n      revert(0x00, 0x00)\n        /* \"contracts/babushka.sol\":321:789  function setupGifts(address[] memory _wallets, uint256[] memory _birthdays) public payable {... */\n    tag_2:\n      tag_7\n      0x04\n      dup1\n      calldatasize\n      sub\n      dup2\n      add\n      swap1\n      tag_8\n      swap2\n      swap1\n      tag_9\n      jump\t// in\n    tag_8:\n      tag_10\n      jump\t// in\n    tag_7:\n      stop\n        /* \"contracts/babushka.sol\":289:310  address[] public list */\n    tag_3:\n      callvalue\n      dup1\n      iszero\n      tag_11\n      jumpi\n      revert(0x00, 0x00)\n    tag_11:\n      pop\n      tag_12\n      0x04\n      dup1\n      calldatasize\n      sub\n      dup2\n      add\n      swap1\n      tag_13\n      swap2\n      swap1\n      tag_14\n      jump\t// in\n    tag_13:\n      tag_15\n      jump\t// in\n    tag_12:\n      mload(0x40)\n      tag_16\n      swap2\n      swap1\n      tag_17\n      jump\t// in\n    tag_16:\n      mload(0x40)\n      dup1\n      swap2\n      sub\n      swap1\n      return\n        /* \"contracts/babushka.sol\":199:250  mapping(address => Grandchild) public grandchildren */\n    tag_4:\n      callvalue\n      dup1\n      iszero\n      tag_18\n      jumpi\n      revert(0x00, 0x00)\n    tag_18:\n      pop\n      tag_19\n      0x04\n      dup1\n      calldatasize\n      sub\n      dup2\n      add\n      swap1\n      tag_20\n      swap2\n      swap1\n      tag_21\n      jump\t// in\n    tag_20:\n      tag_22\n      jump\t// in\n    tag_19:\n      mload(0x40)\n      tag_23\n      swap4\n      swap3\n      swap2\n      swap1\n      tag_24\n      jump\t// in\n    tag_23:\n      mload(0x40)\n      dup1\n      swap2\n      sub\n      swap1\n      return\n        /* \"contracts/babushka.sol\":797:1182  function withdrawGift() public {... */\n    tag_5:\n      callvalue\n      dup1\n      iszero\n      tag_25\n      jumpi\n      revert(0x00, 0x00)\n    tag_25:\n      pop\n      tag_26\n      tag_27\n      jump\t// in\n    tag_26:\n      stop\n        /* \"contracts/babushka.sol\":257:282  uint256 public giftAmount */\n    tag_6:\n      callvalue\n      dup1\n      iszero\n      tag_28\n      jumpi\n      revert(0x00, 0x00)\n    tag_28:\n      pop\n      tag_29\n      tag_30\n      jump\t// in\n    tag_29:\n      mload(0x40)\n      tag_31\n      swap2\n      swap1\n      tag_32\n      jump\t// in\n    tag_31:\n      mload(0x40)\n      dup1\n      swap2\n      sub\n      swap1\n      return\n        /* \"contracts/babushka.sol\":321:789  function setupGifts(address[] memory _wallets, uint256[] memory _birthdays) public payable {... */\n    tag_10:\n        /* \"contracts/babushka.sol\":443:444  0 */\n      0x00\n        /* \"contracts/babushka.sol\":431:440  msg.value */\n      callvalue\n        /* \"contracts/babushka.sol\":431:444  msg.value > 0 */\n      gt\n        /* \"contracts/babushka.sol\":423:462  require(msg.value > 0, \"Need some ETH\") */\n      tag_34\n      jumpi\n      mload(0x40)\n      0x08c379a000000000000000000000000000000000000000000000000000000000\n      dup2\n      mstore\n      0x04\n      add\n      tag_35\n      swap1\n      tag_36\n      jump\t// in\n    tag_35:\n      mload(0x40)\n      dup1\n      swap2\n      sub\n      swap1\n      revert\n    tag_34:\n        /* \"contracts/babushka.sol\":500:510  _birthdays */\n      dup1\n        /* \"contracts/babushka.sol\":500:517  _birthdays.length */\n      mload\n        /* \"contracts/babushka.sol\":481:489  _wallets */\n      dup3\n        /* \"contracts/babushka.sol\":481:496  _wallets.length */\n      mload\n        /* \"contracts/babushka.sol\":481:517  _wallets.length == _birthdays.length */\n      eq\n        /* \"contracts/babushka.sol\":473:535  require(_wallets.length == _birthdays.length, \"Data mismatch\") */\n      tag_37\n      jumpi\n      mload(0x40)\n      0x08c379a000000000000000000000000000000000000000000000000000000000\n      dup2\n      mstore\n      0x04\n      add\n      tag_38\n      swap1\n      tag_39\n      jump\t// in\n    tag_38:\n      mload(0x40)\n      dup1\n      swap2\n      sub\n      swap1\n      revert\n    tag_37:\n        /* \"contracts/babushka.sol\":573:581  _wallets */\n      dup2\n        /* \"contracts/babushka.sol\":573:588  _wallets.length */\n      mload\n        /* \"contracts/babushka.sol\":561:570  msg.value */\n      callvalue\n        /* \"contracts/babushka.sol\":561:588  msg.value / _wallets.length */\n      tag_40\n      swap2\n      swap1\n      tag_41\n      jump\t// in\n    tag_40:\n        /* \"contracts/babushka.sol\":548:558  giftAmount */\n      0x01\n        /* \"contracts/babushka.sol\":548:588  giftAmount = msg.value / _wallets.length */\n      dup2\n      swap1\n      sstore\n      pop\n        /* \"contracts/babushka.sol\":606:612  uint i */\n      0x00\n        /* \"contracts/babushka.sol\":615:616  0 */\n      0x00\n        /* \"contracts/babushka.sol\":606:616  uint i = 0 */\n      swap1\n      pop\n        /* \"contracts/babushka.sol\":601:782  for (uint i = 0; i < _wallets.length; i++) {... */\n    tag_42:\n        /* \"contracts/babushka.sol\":622:630  _wallets */\n      dup3\n        /* \"contracts/babushka.sol\":622:637  _wallets.length */\n      mload\n        /* \"contracts/babushka.sol\":618:619  i */\n      dup2\n        /* \"contracts/babushka.sol\":618:637  i < _wallets.length */\n      lt\n        /* \"contracts/babushka.sol\":601:782  for (uint i = 0; i < _wallets.length; i++) {... */\n      iszero\n      tag_43\n      jumpi\n        /* \"contracts/babushka.sol\":688:733  Grandchild(_wallets[i], _birthdays[i], false) */\n      mload(0x40)\n      dup1\n      0x60\n      add\n      0x40\n      mstore\n      dup1\n        /* \"contracts/babushka.sol\":699:707  _wallets */\n      dup5\n        /* \"contracts/babushka.sol\":708:709  i */\n      dup4\n        /* \"contracts/babushka.sol\":699:710  _wallets[i] */\n      dup2\n      mload\n      dup2\n      lt\n      tag_45\n      jumpi\n      tag_46\n      tag_47\n      jump\t// in\n    tag_46:\n    tag_45:\n      0x20\n      mul\n      0x20\n      add\n      add\n      mload\n        /* \"contracts/babushka.sol\":688:733  Grandchild(_wallets[i], _birthdays[i], false) */\n      0xffffffffffffffffffffffffffffffffffffffff\n      and\n      dup2\n      mstore\n      0x20\n      add\n        /* \"contracts/babushka.sol\":712:722  _birthdays */\n      dup4\n        /* \"contracts/babushka.sol\":723:724  i */\n      dup4\n        /* \"contracts/babushka.sol\":712:725  _birthdays[i] */\n      dup2\n      mload\n      dup2\n      lt\n      tag_48\n      jumpi\n      tag_49\n      tag_47\n      jump\t// in\n    tag_49:\n    tag_48:\n      0x20\n      mul\n      0x20\n      add\n      add\n      mload\n        /* \"contracts/babushka.sol\":688:733  Grandchild(_wallets[i], _birthdays[i], false) */\n      dup2\n      mstore\n      0x20\n      add\n        /* \"contracts/babushka.sol\":727:732  false */\n      0x00\n        /* \"contracts/babushka.sol\":688:733  Grandchild(_wallets[i], _birthdays[i], false) */\n      iszero\n      iszero\n      dup2\n      mstore\n      pop\n        /* \"contracts/babushka.sol\":659:672  grandchildren */\n      0x00\n        /* \"contracts/babushka.sol\":659:685  grandchildren[_wallets[i]] */\n      0x00\n        /* \"contracts/babushka.sol\":673:681  _wallets */\n      dup6\n        /* \"contracts/babushka.sol\":682:683  i */\n      dup5\n        /* \"contracts/babushka.sol\":673:684  _wallets[i] */\n      dup2\n      mload\n      dup2\n      lt\n      tag_50\n      jumpi\n      tag_51\n      tag_47\n      jump\t// in\n    tag_51:\n    tag_50:\n      0x20\n      mul\n      0x20\n      add\n      add\n      mload\n        /* \"contracts/babushka.sol\":659:685  grandchildren[_wallets[i]] */\n      0xffffffffffffffffffffffffffffffffffffffff\n      and\n      0xffffffffffffffffffffffffffffffffffffffff\n      and\n      dup2\n      mstore\n      0x20\n      add\n      swap1\n      dup2\n      mstore\n      0x20\n      add\n      0x00\n      keccak256\n        /* \"contracts/babushka.sol\":659:733  grandchildren[_wallets[i]] = Grandchild(_wallets[i], _birthdays[i], false) */\n      0x00\n      dup3\n      add\n      mload\n      dup2\n      0x00\n      add\n      exp(0x0100, 0x00)\n      dup2\n      sload\n      dup2\n      0xffffffffffffffffffffffffffffffffffffffff\n      mul\n      not\n      and\n      swap1\n      dup4\n      0xffffffffffffffffffffffffffffffffffffffff\n      and\n      mul\n      or\n      swap1\n      sstore\n      pop\n      0x20\n      dup3\n      add\n      mload\n      dup2\n      0x01\n      add\n      sstore\n      0x40\n      dup3\n      add\n      mload\n      dup2\n      0x02\n      add\n      exp(0x0100, 0x00)\n      dup2\n      sload\n      dup2\n      0xff\n      mul\n      not\n      and\n      swap1\n      dup4\n      iszero\n      iszero\n      mul\n      or\n      swap1\n      sstore\n      pop\n      swap1\n      pop\n      pop\n        /* \"contracts/babushka.sol\":748:752  list */\n      0x02\n        /* \"contracts/babushka.sol\":758:766  _wallets */\n      dup4\n        /* \"contracts/babushka.sol\":767:768  i */\n      dup3\n        /* \"contracts/babushka.sol\":758:769  _wallets[i] */\n      dup2\n      mload\n      dup2\n      lt\n      tag_52\n      jumpi\n      tag_53\n      tag_47\n      jump\t// in\n    tag_53:\n    tag_52:\n      0x20\n      mul\n      0x20\n      add\n      add\n      mload\n        /* \"contracts/babushka.sol\":748:770  list.push(_wallets[i]) */\n      swap1\n      dup1\n      0x01\n      dup2\n      sload\n      add\n      dup1\n      dup3\n      sstore\n      dup1\n      swap2\n      pop\n      pop\n      0x01\n      swap1\n      sub\n      swap1\n      0x00\n      mstore\n      keccak256(0x00, 0x20)\n      add\n      0x00\n      swap1\n      swap2\n      swap1\n      swap2\n      swap1\n      swap2\n      0x0100\n      exp\n      dup2\n      sload\n      dup2\n      0xffffffffffffffffffffffffffffffffffffffff\n      mul\n      not\n      and\n      swap1\n      dup4\n      0xffffffffffffffffffffffffffffffffffffffff\n      and\n      mul\n      or\n      swap1\n      sstore\n      pop\n        /* \"contracts/babushka.sol\":639:642  i++ */\n      dup1\n      dup1\n      0x01\n      add\n      swap2\n      pop\n      pop\n        /* \"contracts/babushka.sol\":601:782  for (uint i = 0; i < _wallets.length; i++) {... */\n      jump(tag_42)\n    tag_43:\n      pop\n        /* \"contracts/babushka.sol\":321:789  function setupGifts(address[] memory _wallets, uint256[] memory _birthdays) public payable {... */\n      pop\n      pop\n      jump\t// out\n        /* \"contracts/babushka.sol\":289:310  address[] public list */\n    tag_15:\n      0x02\n      dup2\n      dup2\n      sload\n      dup2\n      lt\n      tag_55\n      jumpi\n      0x00\n      dup1\n      revert\n    tag_55:\n      swap1\n      0x00\n      mstore\n      keccak256(0x00, 0x20)\n      add\n      0x00\n      swap2\n      pop\n      sload\n      swap1\n      0x0100\n      exp\n      swap1\n      div\n      0xffffffffffffffffffffffffffffffffffffffff\n      and\n      dup2\n      jump\t// out\n        /* \"contracts/babushka.sol\":199:250  mapping(address => Grandchild) public grandchildren */\n    tag_22:\n      mstore(0x20, 0x00)\n      dup1\n      0x00\n      mstore\n      keccak256(0x00, 0x40)\n      0x00\n      swap2\n      pop\n      swap1\n      pop\n      dup1\n      0x00\n      add\n      0x00\n      swap1\n      sload\n      swap1\n      0x0100\n      exp\n      swap1\n      div\n      0xffffffffffffffffffffffffffffffffffffffff\n      and\n      swap1\n      dup1\n      0x01\n      add\n      sload\n      swap1\n      dup1\n      0x02\n      add\n      0x00\n      swap1\n      sload\n      swap1\n      0x0100\n      exp\n      swap1\n      div\n      0xff\n      and\n      swap1\n      pop\n      dup4\n      jump\t// out\n        /* \"contracts/babushka.sol\":797:1182  function withdrawGift() public {... */\n    tag_27:\n        /* \"contracts/babushka.sol\":839:861  Grandchild storage kid */\n      0x00\n        /* \"contracts/babushka.sol\":864:877  grandchildren */\n      0x00\n        /* \"contracts/babushka.sol\":864:889  grandchildren[msg.sender] */\n      0x00\n        /* \"contracts/babushka.sol\":878:888  msg.sender */\n      caller\n        /* \"contracts/babushka.sol\":864:889  grandchildren[msg.sender] */\n      0xffffffffffffffffffffffffffffffffffffffff\n      and\n      0xffffffffffffffffffffffffffffffffffffffff\n      and\n      dup2\n      mstore\n      0x20\n      add\n      swap1\n      dup2\n      mstore\n      0x20\n      add\n      0x00\n      keccak256\n        /* \"contracts/babushka.sol\":839:889  Grandchild storage kid = grandchildren[msg.sender] */\n      swap1\n      pop\n        /* \"contracts/babushka.sol\":922:932  msg.sender */\n      caller\n        /* \"contracts/babushka.sol\":908:932  kid.wallet == msg.sender */\n      0xffffffffffffffffffffffffffffffffffffffff\n      and\n        /* \"contracts/babushka.sol\":908:911  kid */\n      dup2\n        /* \"contracts/babushka.sol\":908:918  kid.wallet */\n      0x00\n      add\n      0x00\n      swap1\n      sload\n      swap1\n      0x0100\n      exp\n      swap1\n      div\n      0xffffffffffffffffffffffffffffffffffffffff\n      and\n        /* \"contracts/babushka.sol\":908:932  kid.wallet == msg.sender */\n      0xffffffffffffffffffffffffffffffffffffffff\n      and\n      eq\n        /* \"contracts/babushka.sol\":900:961  require(kid.wallet == msg.sender, \"You are not a grandchild\") */\n      tag_58\n      jumpi\n      mload(0x40)\n      0x08c379a000000000000000000000000000000000000000000000000000000000\n      dup2\n      mstore\n      0x04\n      add\n      tag_59\n      swap1\n      tag_60\n      jump\t// in\n    tag_59:\n      mload(0x40)\n      dup1\n      swap2\n      sub\n      swap1\n      revert\n    tag_58:\n        /* \"contracts/babushka.sol\":999:1002  kid */\n      dup1\n        /* \"contracts/babushka.sol\":999:1011  kid.birthday */\n      0x01\n      add\n      sload\n        /* \"contracts/babushka.sol\":980:995  block.timestamp */\n      timestamp\n        /* \"contracts/babushka.sol\":980:1011  block.timestamp >= kid.birthday */\n      lt\n      iszero\n        /* \"contracts/babushka.sol\":972:1039  require(block.timestamp >= kid.birthday, \"Wait for your birthday!\") */\n      tag_61\n      jumpi\n      mload(0x40)\n      0x08c379a000000000000000000000000000000000000000000000000000000000\n      dup2\n      mstore\n      0x04\n      add\n      tag_62\n      swap1\n      tag_63\n      jump\t// in\n    tag_62:\n      mload(0x40)\n      dup1\n      swap2\n      sub\n      swap1\n      revert\n    tag_61:\n        /* \"contracts/babushka.sol\":1059:1062  kid */\n      dup1\n        /* \"contracts/babushka.sol\":1059:1072  kid.withdrawn */\n      0x02\n      add\n      0x00\n      swap1\n      sload\n      swap1\n      0x0100\n      exp\n      swap1\n      div\n      0xff\n      and\n        /* \"contracts/babushka.sol\":1058:1072  !kid.withdrawn */\n      iszero\n        /* \"contracts/babushka.sol\":1050:1090  require(!kid.withdrawn, \"Already taken\") */\n      tag_64\n      jumpi\n      mload(0x40)\n      0x08c379a000000000000000000000000000000000000000000000000000000000\n      dup2\n      mstore\n      0x04\n      add\n      tag_65\n      swap1\n      tag_66\n      jump\t// in\n    tag_65:\n      mload(0x40)\n      dup1\n      swap2\n      sub\n      swap1\n      revert\n    tag_64:\n        /* \"contracts/babushka.sol\":1119:1123  true */\n      0x01\n        /* \"contracts/babushka.sol\":1103:1106  kid */\n      dup2\n        /* \"contracts/babushka.sol\":1103:1116  kid.withdrawn */\n      0x02\n      add\n      0x00\n        /* \"contracts/babushka.sol\":1103:1123  kid.withdrawn = true */\n      0x0100\n      exp\n      dup2\n      sload\n      dup2\n      0xff\n      mul\n      not\n      and\n      swap1\n      dup4\n      iszero\n      iszero\n      mul\n      or\n      swap1\n      sstore\n      pop\n        /* \"contracts/babushka.sol\":1142:1152  msg.sender */\n      caller\n        /* \"contracts/babushka.sol\":1134:1162  payable(msg.sender).transfer */\n      0xffffffffffffffffffffffffffffffffffffffff\n      and\n        /* \"contracts/babushka.sol\":1134:1174  payable(msg.sender).transfer(giftAmount) */\n      0x08fc\n        /* \"contracts/babushka.sol\":1163:1173  giftAmount */\n      sload(0x01)\n        /* \"contracts/babushka.sol\":1134:1174  payable(msg.sender).transfer(giftAmount) */\n      swap1\n      dup2\n      iszero\n      mul\n      swap1\n      mload(0x40)\n      0x00\n      mload(0x40)\n      dup1\n      dup4\n      sub\n      dup2\n      dup6\n      dup9\n      dup9\n      call\n      swap4\n      pop\n      pop\n      pop\n      pop\n      iszero\n      dup1\n      iszero\n      tag_68\n      jumpi\n      returndatacopy(0x00, 0x00, returndatasize)\n      revert(0x00, returndatasize)\n    tag_68:\n      pop\n        /* \"contracts/babushka.sol\":828:1182  {... */\n      pop\n        /* \"contracts/babushka.sol\":797:1182  function withdrawGift() public {... */\n      jump\t// out\n        /* \"contracts/babushka.sol\":257:282  uint256 public giftAmount */\n    tag_30:\n      sload(0x01)\n      dup2\n      jump\t// out\n        /* \"#utility.yul\":7:82   */\n    tag_69:\n        /* \"#utility.yul\":40:46   */\n      0x00\n        /* \"#utility.yul\":73:75   */\n      0x40\n        /* \"#utility.yul\":67:76   */\n      mload\n        /* \"#utility.yul\":57:76   */\n      swap1\n      pop\n        /* \"#utility.yul\":7:82   */\n      swap1\n      jump\t// out\n        /* \"#utility.yul\":88:205   */\n    tag_70:\n        /* \"#utility.yul\":197:198   */\n      0x00\n        /* \"#utility.yul\":194:195   */\n      0x00\n        /* \"#utility.yul\":187:199   */\n      revert\n        /* \"#utility.yul\":211:328   */\n    tag_71:\n        /* \"#utility.yul\":320:321   */\n      0x00\n        /* \"#utility.yul\":317:318   */\n      0x00\n        /* \"#utility.yul\":310:322   */\n      revert\n        /* \"#utility.yul\":334:451   */\n    tag_72:\n        /* \"#utility.yul\":443:444   */\n      0x00\n        /* \"#utility.yul\":440:441   */\n      0x00\n        /* \"#utility.yul\":433:445   */\n      revert\n        /* \"#utility.yul\":457:559   */\n    tag_73:\n        /* \"#utility.yul\":498:504   */\n      0x00\n        /* \"#utility.yul\":549:551   */\n      0x1f\n        /* \"#utility.yul\":545:552   */\n      not\n        /* \"#utility.yul\":540:542   */\n      0x1f\n        /* \"#utility.yul\":533:538   */\n      dup4\n        /* \"#utility.yul\":529:543   */\n      add\n        /* \"#utility.yul\":525:553   */\n      and\n        /* \"#utility.yul\":515:553   */\n      swap1\n      pop\n        /* \"#utility.yul\":457:559   */\n      swap2\n      swap1\n      pop\n      jump\t// out\n        /* \"#utility.yul\":565:745   */\n    tag_74:\n        /* \"#utility.yul\":613:690   */\n      0x4e487b7100000000000000000000000000000000000000000000000000000000\n        /* \"#utility.yul\":610:611   */\n      0x00\n        /* \"#utility.yul\":603:691   */\n      mstore\n        /* \"#utility.yul\":710:714   */\n      0x41\n        /* \"#utility.yul\":707:708   */\n      0x04\n        /* \"#utility.yul\":700:715   */\n      mstore\n        /* \"#utility.yul\":734:738   */\n      0x24\n        /* \"#utility.yul\":731:732   */\n      0x00\n        /* \"#utility.yul\":724:739   */\n      revert\n        /* \"#utility.yul\":751:1032   */\n    tag_75:\n        /* \"#utility.yul\":834:861   */\n      tag_116\n        /* \"#utility.yul\":856:860   */\n      dup3\n        /* \"#utility.yul\":834:861   */\n      tag_73\n      jump\t// in\n    tag_116:\n        /* \"#utility.yul\":826:832   */\n      dup2\n        /* \"#utility.yul\":822:862   */\n      add\n        /* \"#utility.yul\":964:970   */\n      dup2\n        /* \"#utility.yul\":952:962   */\n      dup2\n        /* \"#utility.yul\":949:971   */\n      lt\n        /* \"#utility.yul\":928:946   */\n      0xffffffffffffffff\n        /* \"#utility.yul\":916:926   */\n      dup3\n        /* \"#utility.yul\":913:947   */\n      gt\n        /* \"#utility.yul\":910:972   */\n      or\n        /* \"#utility.yul\":907:995   */\n      iszero\n      tag_117\n      jumpi\n        /* \"#utility.yul\":975:993   */\n      tag_118\n      tag_74\n      jump\t// in\n    tag_118:\n        /* \"#utility.yul\":907:995   */\n    tag_117:\n        /* \"#utility.yul\":1015:1025   */\n      dup1\n        /* \"#utility.yul\":1011:1013   */\n      0x40\n        /* \"#utility.yul\":1004:1026   */\n      mstore\n        /* \"#utility.yul\":794:1032   */\n      pop\n        /* \"#utility.yul\":751:1032   */\n      pop\n      pop\n      jump\t// out\n        /* \"#utility.yul\":1038:1167   */\n    tag_76:\n        /* \"#utility.yul\":1072:1078   */\n      0x00\n        /* \"#utility.yul\":1099:1119   */\n      tag_120\n      tag_69\n      jump\t// in\n    tag_120:\n        /* \"#utility.yul\":1089:1119   */\n      swap1\n      pop\n        /* \"#utility.yul\":1128:1161   */\n      tag_121\n        /* \"#utility.yul\":1156:1160   */\n      dup3\n        /* \"#utility.yul\":1148:1154   */\n      dup3\n        /* \"#utility.yul\":1128:1161   */\n      tag_75\n      jump\t// in\n    tag_121:\n        /* \"#utility.yul\":1038:1167   */\n      swap2\n      swap1\n      pop\n      jump\t// out\n        /* \"#utility.yul\":1173:1484   */\n    tag_77:\n        /* \"#utility.yul\":1250:1254   */\n      0x00\n        /* \"#utility.yul\":1340:1358   */\n      0xffffffffffffffff\n        /* \"#utility.yul\":1332:1338   */\n      dup3\n        /* \"#utility.yul\":1329:1359   */\n      gt\n        /* \"#utility.yul\":1326:1382   */\n      iszero\n      tag_123\n      jumpi\n        /* \"#utility.yul\":1362:1380   */\n      tag_124\n      tag_74\n      jump\t// in\n    tag_124:\n        /* \"#utility.yul\":1326:1382   */\n    tag_123:\n        /* \"#utility.yul\":1412:1416   */\n      0x20\n        /* \"#utility.yul\":1404:1410   */\n      dup3\n        /* \"#utility.yul\":1400:1417   */\n      mul\n        /* \"#utility.yul\":1392:1417   */\n      swap1\n      pop\n        /* \"#utility.yul\":1472:1476   */\n      0x20\n        /* \"#utility.yul\":1466:1470   */\n      dup2\n        /* \"#utility.yul\":1462:1477   */\n      add\n        /* \"#utility.yul\":1454:1477   */\n      swap1\n      pop\n        /* \"#utility.yul\":1173:1484   */\n      swap2\n      swap1\n      pop\n      jump\t// out\n        /* \"#utility.yul\":1490:1607   */\n    tag_78:\n        /* \"#utility.yul\":1599:1600   */\n      0x00\n        /* \"#utility.yul\":1596:1597   */\n      0x00\n        /* \"#utility.yul\":1589:1601   */\n      revert\n        /* \"#utility.yul\":1613:1739   */\n    tag_79:\n        /* \"#utility.yul\":1650:1657   */\n      0x00\n        /* \"#utility.yul\":1690:1732   */\n      0xffffffffffffffffffffffffffffffffffffffff\n        /* \"#utility.yul\":1683:1688   */\n      dup3\n        /* \"#utility.yul\":1679:1733   */\n      and\n        /* \"#utility.yul\":1668:1733   */\n      swap1\n      pop\n        /* \"#utility.yul\":1613:1739   */\n      swap2\n      swap1\n      pop\n      jump\t// out\n        /* \"#utility.yul\":1745:1841   */\n    tag_80:\n        /* \"#utility.yul\":1782:1789   */\n      0x00\n        /* \"#utility.yul\":1811:1835   */\n      tag_128\n        /* \"#utility.yul\":1829:1834   */\n      dup3\n        /* \"#utility.yul\":1811:1835   */\n      tag_79\n      jump\t// in\n    tag_128:\n        /* \"#utility.yul\":1800:1835   */\n      swap1\n      pop\n        /* \"#utility.yul\":1745:1841   */\n      swap2\n      swap1\n      pop\n      jump\t// out\n        /* \"#utility.yul\":1847:1969   */\n    tag_81:\n        /* \"#utility.yul\":1920:1944   */\n      tag_130\n        /* \"#utility.yul\":1938:1943   */\n      dup2\n        /* \"#utility.yul\":1920:1944   */\n      tag_80\n      jump\t// in\n    tag_130:\n        /* \"#utility.yul\":1913:1918   */\n      dup2\n        /* \"#utility.yul\":1910:1945   */\n      eq\n        /* \"#utility.yul\":1900:1963   */\n      tag_131\n      jumpi\n        /* \"#utility.yul\":1959:1960   */\n      0x00\n        /* \"#utility.yul\":1956:1957   */\n      0x00\n        /* \"#utility.yul\":1949:1961   */\n      revert\n        /* \"#utility.yul\":1900:1963   */\n    tag_131:\n        /* \"#utility.yul\":1847:1969   */\n      pop\n      jump\t// out\n        /* \"#utility.yul\":1975:2114   */\n    tag_82:\n        /* \"#utility.yul\":2021:2026   */\n      0x00\n        /* \"#utility.yul\":2059:2065   */\n      dup2\n        /* \"#utility.yul\":2046:2066   */\n      calldataload\n        /* \"#utility.yul\":2037:2066   */\n      swap1\n      pop\n        /* \"#utility.yul\":2075:2108   */\n      tag_133\n        /* \"#utility.yul\":2102:2107   */\n      dup2\n        /* \"#utility.yul\":2075:2108   */\n      tag_81\n      jump\t// in\n    tag_133:\n        /* \"#utility.yul\":1975:2114   */\n      swap3\n      swap2\n      pop\n      pop\n      jump\t// out\n        /* \"#utility.yul\":2137:2847   */\n    tag_83:\n        /* \"#utility.yul\":2233:2238   */\n      0x00\n        /* \"#utility.yul\":2258:2339   */\n      tag_135\n        /* \"#utility.yul\":2274:2338   */\n      tag_136\n        /* \"#utility.yul\":2331:2337   */\n      dup5\n        /* \"#utility.yul\":2274:2338   */\n      tag_77\n      jump\t// in\n    tag_136:\n        /* \"#utility.yul\":2258:2339   */\n      tag_76\n      jump\t// in\n    tag_135:\n        /* \"#utility.yul\":2249:2339   */\n      swap1\n      pop\n        /* \"#utility.yul\":2359:2364   */\n      dup1\n        /* \"#utility.yul\":2388:2394   */\n      dup4\n        /* \"#utility.yul\":2381:2386   */\n      dup3\n        /* \"#utility.yul\":2374:2395   */\n      mstore\n        /* \"#utility.yul\":2422:2426   */\n      0x20\n        /* \"#utility.yul\":2415:2420   */\n      dup3\n        /* \"#utility.yul\":2411:2427   */\n      add\n        /* \"#utility.yul\":2404:2427   */\n      swap1\n      pop\n        /* \"#utility.yul\":2475:2479   */\n      0x20\n        /* \"#utility.yul\":2467:2473   */\n      dup5\n        /* \"#utility.yul\":2463:2480   */\n      mul\n        /* \"#utility.yul\":2455:2461   */\n      dup4\n        /* \"#utility.yul\":2451:2481   */\n      add\n        /* \"#utility.yul\":2504:2507   */\n      dup6\n        /* \"#utility.yul\":2496:2502   */\n      dup2\n        /* \"#utility.yul\":2493:2508   */\n      gt\n        /* \"#utility.yul\":2490:2612   */\n      iszero\n      tag_137\n      jumpi\n        /* \"#utility.yul\":2523:2602   */\n      tag_138\n      tag_78\n      jump\t// in\n    tag_138:\n        /* \"#utility.yul\":2490:2612   */\n    tag_137:\n        /* \"#utility.yul\":2638:2644   */\n      dup4\n        /* \"#utility.yul\":2621:2841   */\n    tag_139:\n        /* \"#utility.yul\":2655:2661   */\n      dup2\n        /* \"#utility.yul\":2650:2653   */\n      dup2\n        /* \"#utility.yul\":2647:2662   */\n      lt\n        /* \"#utility.yul\":2621:2841   */\n      iszero\n      tag_141\n      jumpi\n        /* \"#utility.yul\":2730:2733   */\n      dup1\n        /* \"#utility.yul\":2759:2796   */\n      tag_142\n        /* \"#utility.yul\":2792:2795   */\n      dup9\n        /* \"#utility.yul\":2780:2790   */\n      dup3\n        /* \"#utility.yul\":2759:2796   */\n      tag_82\n      jump\t// in\n    tag_142:\n        /* \"#utility.yul\":2754:2757   */\n      dup5\n        /* \"#utility.yul\":2747:2797   */\n      mstore\n        /* \"#utility.yul\":2826:2830   */\n      0x20\n        /* \"#utility.yul\":2821:2824   */\n      dup5\n        /* \"#utility.yul\":2817:2831   */\n      add\n        /* \"#utility.yul\":2810:2831   */\n      swap4\n      pop\n        /* \"#utility.yul\":2697:2841   */\n      pop\n        /* \"#utility.yul\":2681:2685   */\n      0x20\n        /* \"#utility.yul\":2676:2679   */\n      dup2\n        /* \"#utility.yul\":2672:2686   */\n      add\n        /* \"#utility.yul\":2665:2686   */\n      swap1\n      pop\n        /* \"#utility.yul\":2621:2841   */\n      jump(tag_139)\n    tag_141:\n        /* \"#utility.yul\":2625:2646   */\n      pop\n        /* \"#utility.yul\":2239:2847   */\n      pop\n      pop\n        /* \"#utility.yul\":2137:2847   */\n      swap4\n      swap3\n      pop\n      pop\n      pop\n      jump\t// out\n        /* \"#utility.yul\":2870:3240   */\n    tag_84:\n        /* \"#utility.yul\":2941:2946   */\n      0x00\n        /* \"#utility.yul\":2990:2993   */\n      dup3\n        /* \"#utility.yul\":2983:2987   */\n      0x1f\n        /* \"#utility.yul\":2975:2981   */\n      dup4\n        /* \"#utility.yul\":2971:2988   */\n      add\n        /* \"#utility.yul\":2967:2994   */\n      slt\n        /* \"#utility.yul\":2957:3079   */\n      tag_144\n      jumpi\n        /* \"#utility.yul\":2998:3077   */\n      tag_145\n      tag_72\n      jump\t// in\n    tag_145:\n        /* \"#utility.yul\":2957:3079   */\n    tag_144:\n        /* \"#utility.yul\":3115:3121   */\n      dup2\n        /* \"#utility.yul\":3102:3122   */\n      calldataload\n        /* \"#utility.yul\":3140:3234   */\n      tag_146\n        /* \"#utility.yul\":3230:3233   */\n      dup5\n        /* \"#utility.yul\":3222:3228   */\n      dup3\n        /* \"#utility.yul\":3215:3219   */\n      0x20\n        /* \"#utility.yul\":3207:3213   */\n      dup7\n        /* \"#utility.yul\":3203:3220   */\n      add\n        /* \"#utility.yul\":3140:3234   */\n      tag_83\n      jump\t// in\n    tag_146:\n        /* \"#utility.yul\":3131:3234   */\n      swap2\n      pop\n        /* \"#utility.yul\":2947:3240   */\n      pop\n        /* \"#utility.yul\":2870:3240   */\n      swap3\n      swap2\n      pop\n      pop\n      jump\t// out\n        /* \"#utility.yul\":3246:3557   */\n    tag_85:\n        /* \"#utility.yul\":3323:3327   */\n      0x00\n        /* \"#utility.yul\":3413:3431   */\n      0xffffffffffffffff\n        /* \"#utility.yul\":3405:3411   */\n      dup3\n        /* \"#utility.yul\":3402:3432   */\n      gt\n        /* \"#utility.yul\":3399:3455   */\n      iszero\n      tag_148\n      jumpi\n        /* \"#utility.yul\":3435:3453   */\n      tag_149\n      tag_74\n      jump\t// in\n    tag_149:\n        /* \"#utility.yul\":3399:3455   */\n    tag_148:\n        /* \"#utility.yul\":3485:3489   */\n      0x20\n        /* \"#utility.yul\":3477:3483   */\n      dup3\n        /* \"#utility.yul\":3473:3490   */\n      mul\n        /* \"#utility.yul\":3465:3490   */\n      swap1\n      pop\n        /* \"#utility.yul\":3545:3549   */\n      0x20\n        /* \"#utility.yul\":3539:3543   */\n      dup2\n        /* \"#utility.yul\":3535:3550   */\n      add\n        /* \"#utility.yul\":3527:3550   */\n      swap1\n      pop\n        /* \"#utility.yul\":3246:3557   */\n      swap2\n      swap1\n      pop\n      jump\t// out\n        /* \"#utility.yul\":3563:3640   */\n    tag_86:\n        /* \"#utility.yul\":3600:3607   */\n      0x00\n        /* \"#utility.yul\":3629:3634   */\n      dup2\n        /* \"#utility.yul\":3618:3634   */\n      swap1\n      pop\n        /* \"#utility.yul\":3563:3640   */\n      swap2\n      swap1\n      pop\n      jump\t// out\n        /* \"#utility.yul\":3646:3768   */\n    tag_87:\n        /* \"#utility.yul\":3719:3743   */\n      tag_152\n        /* \"#utility.yul\":3737:3742   */\n      dup2\n        /* \"#utility.yul\":3719:3743   */\n      tag_86\n      jump\t// in\n    tag_152:\n        /* \"#utility.yul\":3712:3717   */\n      dup2\n        /* \"#utility.yul\":3709:3744   */\n      eq\n        /* \"#utility.yul\":3699:3762   */\n      tag_153\n      jumpi\n        /* \"#utility.yul\":3758:3759   */\n      0x00\n        /* \"#utility.yul\":3755:3756   */\n      0x00\n        /* \"#utility.yul\":3748:3760   */\n      revert\n        /* \"#utility.yul\":3699:3762   */\n    tag_153:\n        /* \"#utility.yul\":3646:3768   */\n      pop\n      jump\t// out\n        /* \"#utility.yul\":3774:3913   */\n    tag_88:\n        /* \"#utility.yul\":3820:3825   */\n      0x00\n        /* \"#utility.yul\":3858:3864   */\n      dup2\n        /* \"#utility.yul\":3845:3865   */\n      calldataload\n        /* \"#utility.yul\":3836:3865   */\n      swap1\n      pop\n        /* \"#utility.yul\":3874:3907   */\n      tag_155\n        /* \"#utility.yul\":3901:3906   */\n      dup2\n        /* \"#utility.yul\":3874:3907   */\n      tag_87\n      jump\t// in\n    tag_155:\n        /* \"#utility.yul\":3774:3913   */\n      swap3\n      swap2\n      pop\n      pop\n      jump\t// out\n        /* \"#utility.yul\":3936:4646   */\n    tag_89:\n        /* \"#utility.yul\":4032:4037   */\n      0x00\n        /* \"#utility.yul\":4057:4138   */\n      tag_157\n        /* \"#utility.yul\":4073:4137   */\n      tag_158\n        /* \"#utility.yul\":4130:4136   */\n      dup5\n        /* \"#utility.yul\":4073:4137   */\n      tag_85\n      jump\t// in\n    tag_158:\n        /* \"#utility.yul\":4057:4138   */\n      tag_76\n      jump\t// in\n    tag_157:\n        /* \"#utility.yul\":4048:4138   */\n      swap1\n      pop\n        /* \"#utility.yul\":4158:4163   */\n      dup1\n        /* \"#utility.yul\":4187:4193   */\n      dup4\n        /* \"#utility.yul\":4180:4185   */\n      dup3\n        /* \"#utility.yul\":4173:4194   */\n      mstore\n        /* \"#utility.yul\":4221:4225   */\n      0x20\n        /* \"#utility.yul\":4214:4219   */\n      dup3\n        /* \"#utility.yul\":4210:4226   */\n      add\n        /* \"#utility.yul\":4203:4226   */\n      swap1\n      pop\n        /* \"#utility.yul\":4274:4278   */\n      0x20\n        /* \"#utility.yul\":4266:4272   */\n      dup5\n        /* \"#utility.yul\":4262:4279   */\n      mul\n        /* \"#utility.yul\":4254:4260   */\n      dup4\n        /* \"#utility.yul\":4250:4280   */\n      add\n        /* \"#utility.yul\":4303:4306   */\n      dup6\n        /* \"#utility.yul\":4295:4301   */\n      dup2\n        /* \"#utility.yul\":4292:4307   */\n      gt\n        /* \"#utility.yul\":4289:4411   */\n      iszero\n      tag_159\n      jumpi\n        /* \"#utility.yul\":4322:4401   */\n      tag_160\n      tag_78\n      jump\t// in\n    tag_160:\n        /* \"#utility.yul\":4289:4411   */\n    tag_159:\n        /* \"#utility.yul\":4437:4443   */\n      dup4\n        /* \"#utility.yul\":4420:4640   */\n    tag_161:\n        /* \"#utility.yul\":4454:4460   */\n      dup2\n        /* \"#utility.yul\":4449:4452   */\n      dup2\n        /* \"#utility.yul\":4446:4461   */\n      lt\n        /* \"#utility.yul\":4420:4640   */\n      iszero\n      tag_163\n      jumpi\n        /* \"#utility.yul\":4529:4532   */\n      dup1\n        /* \"#utility.yul\":4558:4595   */\n      tag_164\n        /* \"#utility.yul\":4591:4594   */\n      dup9\n        /* \"#utility.yul\":4579:4589   */\n      dup3\n        /* \"#utility.yul\":4558:4595   */\n      tag_88\n      jump\t// in\n    tag_164:\n        /* \"#utility.yul\":4553:4556   */\n      dup5\n        /* \"#utility.yul\":4546:4596   */\n      mstore\n        /* \"#utility.yul\":4625:4629   */\n      0x20\n        /* \"#utility.yul\":4620:4623   */\n      dup5\n        /* \"#utility.yul\":4616:4630   */\n      add\n        /* \"#utility.yul\":4609:4630   */\n      swap4\n      pop\n        /* \"#utility.yul\":4496:4640   */\n      pop\n        /* \"#utility.yul\":4480:4484   */\n      0x20\n        /* \"#utility.yul\":4475:4478   */\n      dup2\n        /* \"#utility.yul\":4471:4485   */\n      add\n        /* \"#utility.yul\":4464:4485   */\n      swap1\n      pop\n        /* \"#utility.yul\":4420:4640   */\n      jump(tag_161)\n    tag_163:\n        /* \"#utility.yul\":4424:4445   */\n      pop\n        /* \"#utility.yul\":4038:4646   */\n      pop\n      pop\n        /* \"#utility.yul\":3936:4646   */\n      swap4\n      swap3\n      pop\n      pop\n      pop\n      jump\t// out\n        /* \"#utility.yul\":4669:5039   */\n    tag_90:\n        /* \"#utility.yul\":4740:4745   */\n      0x00\n        /* \"#utility.yul\":4789:4792   */\n      dup3\n        /* \"#utility.yul\":4782:4786   */\n      0x1f\n        /* \"#utility.yul\":4774:4780   */\n      dup4\n        /* \"#utility.yul\":4770:4787   */\n      add\n        /* \"#utility.yul\":4766:4793   */\n      slt\n        /* \"#utility.yul\":4756:4878   */\n      tag_166\n      jumpi\n        /* \"#utility.yul\":4797:4876   */\n      tag_167\n      tag_72\n      jump\t// in\n    tag_167:\n        /* \"#utility.yul\":4756:4878   */\n    tag_166:\n        /* \"#utility.yul\":4914:4920   */\n      dup2\n        /* \"#utility.yul\":4901:4921   */\n      calldataload\n        /* \"#utility.yul\":4939:5033   */\n      tag_168\n        /* \"#utility.yul\":5029:5032   */\n      dup5\n        /* \"#utility.yul\":5021:5027   */\n      dup3\n        /* \"#utility.yul\":5014:5018   */\n      0x20\n        /* \"#utility.yul\":5006:5012   */\n      dup7\n        /* \"#utility.yul\":5002:5019   */\n      add\n        /* \"#utility.yul\":4939:5033   */\n      tag_89\n      jump\t// in\n    tag_168:\n        /* \"#utility.yul\":4930:5033   */\n      swap2\n      pop\n        /* \"#utility.yul\":4746:5039   */\n      pop\n        /* \"#utility.yul\":4669:5039   */\n      swap3\n      swap2\n      pop\n      pop\n      jump\t// out\n        /* \"#utility.yul\":5045:5939   */\n    tag_9:\n        /* \"#utility.yul\":5163:5169   */\n      0x00\n        /* \"#utility.yul\":5171:5177   */\n      0x00\n        /* \"#utility.yul\":5220:5222   */\n      0x40\n        /* \"#utility.yul\":5208:5217   */\n      dup4\n        /* \"#utility.yul\":5199:5206   */\n      dup6\n        /* \"#utility.yul\":5195:5218   */\n      sub\n        /* \"#utility.yul\":5191:5223   */\n      slt\n        /* \"#utility.yul\":5188:5307   */\n      iszero\n      tag_170\n      jumpi\n        /* \"#utility.yul\":5226:5305   */\n      tag_171\n      tag_70\n      jump\t// in\n    tag_171:\n        /* \"#utility.yul\":5188:5307   */\n    tag_170:\n        /* \"#utility.yul\":5374:5375   */\n      0x00\n        /* \"#utility.yul\":5363:5372   */\n      dup4\n        /* \"#utility.yul\":5359:5376   */\n      add\n        /* \"#utility.yul\":5346:5377   */\n      calldataload\n        /* \"#utility.yul\":5404:5422   */\n      0xffffffffffffffff\n        /* \"#utility.yul\":5396:5402   */\n      dup2\n        /* \"#utility.yul\":5393:5423   */\n      gt\n        /* \"#utility.yul\":5390:5507   */\n      iszero\n      tag_172\n      jumpi\n        /* \"#utility.yul\":5426:5505   */\n      tag_173\n      tag_71\n      jump\t// in\n    tag_173:\n        /* \"#utility.yul\":5390:5507   */\n    tag_172:\n        /* \"#utility.yul\":5531:5609   */\n      tag_174\n        /* \"#utility.yul\":5601:5608   */\n      dup6\n        /* \"#utility.yul\":5592:5598   */\n      dup3\n        /* \"#utility.yul\":5581:5590   */\n      dup7\n        /* \"#utility.yul\":5577:5599   */\n      add\n        /* \"#utility.yul\":5531:5609   */\n      tag_84\n      jump\t// in\n    tag_174:\n        /* \"#utility.yul\":5521:5609   */\n      swap3\n      pop\n        /* \"#utility.yul\":5317:5619   */\n      pop\n        /* \"#utility.yul\":5686:5688   */\n      0x20\n        /* \"#utility.yul\":5675:5684   */\n      dup4\n        /* \"#utility.yul\":5671:5689   */\n      add\n        /* \"#utility.yul\":5658:5690   */\n      calldataload\n        /* \"#utility.yul\":5717:5735   */\n      0xffffffffffffffff\n        /* \"#utility.yul\":5709:5715   */\n      dup2\n        /* \"#utility.yul\":5706:5736   */\n      gt\n        /* \"#utility.yul\":5703:5820   */\n      iszero\n      tag_175\n      jumpi\n        /* \"#utility.yul\":5739:5818   */\n      tag_176\n      tag_71\n      jump\t// in\n    tag_176:\n        /* \"#utility.yul\":5703:5820   */\n    tag_175:\n        /* \"#utility.yul\":5844:5922   */\n      tag_177\n        /* \"#utility.yul\":5914:5921   */\n      dup6\n        /* \"#utility.yul\":5905:5911   */\n      dup3\n        /* \"#utility.yul\":5894:5903   */\n      dup7\n        /* \"#utility.yul\":5890:5912   */\n      add\n        /* \"#utility.yul\":5844:5922   */\n      tag_90\n      jump\t// in\n    tag_177:\n        /* \"#utility.yul\":5834:5922   */\n      swap2\n      pop\n        /* \"#utility.yul\":5629:5932   */\n      pop\n        /* \"#utility.yul\":5045:5939   */\n      swap3\n      pop\n      swap3\n      swap1\n      pop\n      jump\t// out\n        /* \"#utility.yul\":5945:6274   */\n    tag_14:\n        /* \"#utility.yul\":6004:6010   */\n      0x00\n        /* \"#utility.yul\":6053:6055   */\n      0x20\n        /* \"#utility.yul\":6041:6050   */\n      dup3\n        /* \"#utility.yul\":6032:6039   */\n      dup5\n        /* \"#utility.yul\":6028:6051   */\n      sub\n        /* \"#utility.yul\":6024:6056   */\n      slt\n        /* \"#utility.yul\":6021:6140   */\n      iszero\n      tag_179\n      jumpi\n        /* \"#utility.yul\":6059:6138   */\n      tag_180\n      tag_70\n      jump\t// in\n    tag_180:\n        /* \"#utility.yul\":6021:6140   */\n    tag_179:\n        /* \"#utility.yul\":6179:6180   */\n      0x00\n        /* \"#utility.yul\":6204:6257   */\n      tag_181\n        /* \"#utility.yul\":6249:6256   */\n      dup5\n        /* \"#utility.yul\":6240:6246   */\n      dup3\n        /* \"#utility.yul\":6229:6238   */\n      dup6\n        /* \"#utility.yul\":6225:6247   */\n      add\n        /* \"#utility.yul\":6204:6257   */\n      tag_88\n      jump\t// in\n    tag_181:\n        /* \"#utility.yul\":6194:6257   */\n      swap2\n      pop\n        /* \"#utility.yul\":6150:6267   */\n      pop\n        /* \"#utility.yul\":5945:6274   */\n      swap3\n      swap2\n      pop\n      pop\n      jump\t// out\n        /* \"#utility.yul\":6280:6398   */\n    tag_91:\n        /* \"#utility.yul\":6367:6391   */\n      tag_183\n        /* \"#utility.yul\":6385:6390   */\n      dup2\n        /* \"#utility.yul\":6367:6391   */\n      tag_80\n      jump\t// in\n    tag_183:\n        /* \"#utility.yul\":6362:6365   */\n      dup3\n        /* \"#utility.yul\":6355:6392   */\n      mstore\n        /* \"#utility.yul\":6280:6398   */\n      pop\n      pop\n      jump\t// out\n        /* \"#utility.yul\":6404:6626   */\n    tag_17:\n        /* \"#utility.yul\":6497:6501   */\n      0x00\n        /* \"#utility.yul\":6535:6537   */\n      0x20\n        /* \"#utility.yul\":6524:6533   */\n      dup3\n        /* \"#utility.yul\":6520:6538   */\n      add\n        /* \"#utility.yul\":6512:6538   */\n      swap1\n      pop\n        /* \"#utility.yul\":6548:6619   */\n      tag_185\n        /* \"#utility.yul\":6616:6617   */\n      0x00\n        /* \"#utility.yul\":6605:6614   */\n      dup4\n        /* \"#utility.yul\":6601:6618   */\n      add\n        /* \"#utility.yul\":6592:6598   */\n      dup5\n        /* \"#utility.yul\":6548:6619   */\n      tag_91\n      jump\t// in\n    tag_185:\n        /* \"#utility.yul\":6404:6626   */\n      swap3\n      swap2\n      pop\n      pop\n      jump\t// out\n        /* \"#utility.yul\":6632:6961   */\n    tag_21:\n        /* \"#utility.yul\":6691:6697   */\n      0x00\n        /* \"#utility.yul\":6740:6742   */\n      0x20\n        /* \"#utility.yul\":6728:6737   */\n      dup3\n        /* \"#utility.yul\":6719:6726   */\n      dup5\n        /* \"#utility.yul\":6715:6738   */\n      sub\n        /* \"#utility.yul\":6711:6743   */\n      slt\n        /* \"#utility.yul\":6708:6827   */\n      iszero\n      tag_187\n      jumpi\n        /* \"#utility.yul\":6746:6825   */\n      tag_188\n      tag_70\n      jump\t// in\n    tag_188:\n        /* \"#utility.yul\":6708:6827   */\n    tag_187:\n        /* \"#utility.yul\":6866:6867   */\n      0x00\n        /* \"#utility.yul\":6891:6944   */\n      tag_189\n        /* \"#utility.yul\":6936:6943   */\n      dup5\n        /* \"#utility.yul\":6927:6933   */\n      dup3\n        /* \"#utility.yul\":6916:6925   */\n      dup6\n        /* \"#utility.yul\":6912:6934   */\n      add\n        /* \"#utility.yul\":6891:6944   */\n      tag_82\n      jump\t// in\n    tag_189:\n        /* \"#utility.yul\":6881:6944   */\n      swap2\n      pop\n        /* \"#utility.yul\":6837:6954   */\n      pop\n        /* \"#utility.yul\":6632:6961   */\n      swap3\n      swap2\n      pop\n      pop\n      jump\t// out\n        /* \"#utility.yul\":6967:7085   */\n    tag_92:\n        /* \"#utility.yul\":7054:7078   */\n      tag_191\n        /* \"#utility.yul\":7072:7077   */\n      dup2\n        /* \"#utility.yul\":7054:7078   */\n      tag_86\n      jump\t// in\n    tag_191:\n        /* \"#utility.yul\":7049:7052   */\n      dup3\n        /* \"#utility.yul\":7042:7079   */\n      mstore\n        /* \"#utility.yul\":6967:7085   */\n      pop\n      pop\n      jump\t// out\n        /* \"#utility.yul\":7091:7181   */\n    tag_93:\n        /* \"#utility.yul\":7125:7132   */\n      0x00\n        /* \"#utility.yul\":7168:7173   */\n      dup2\n        /* \"#utility.yul\":7161:7174   */\n      iszero\n        /* \"#utility.yul\":7154:7175   */\n      iszero\n        /* \"#utility.yul\":7143:7175   */\n      swap1\n      pop\n        /* \"#utility.yul\":7091:7181   */\n      swap2\n      swap1\n      pop\n      jump\t// out\n        /* \"#utility.yul\":7187:7296   */\n    tag_94:\n        /* \"#utility.yul\":7268:7289   */\n      tag_194\n        /* \"#utility.yul\":7283:7288   */\n      dup2\n        /* \"#utility.yul\":7268:7289   */\n      tag_93\n      jump\t// in\n    tag_194:\n        /* \"#utility.yul\":7263:7266   */\n      dup3\n        /* \"#utility.yul\":7256:7290   */\n      mstore\n        /* \"#utility.yul\":7187:7296   */\n      pop\n      pop\n      jump\t// out\n        /* \"#utility.yul\":7302:7732   */\n    tag_24:\n        /* \"#utility.yul\":7445:7449   */\n      0x00\n        /* \"#utility.yul\":7483:7485   */\n      0x60\n        /* \"#utility.yul\":7472:7481   */\n      dup3\n        /* \"#utility.yul\":7468:7486   */\n      add\n        /* \"#utility.yul\":7460:7486   */\n      swap1\n      pop\n        /* \"#utility.yul\":7496:7567   */\n      tag_196\n        /* \"#utility.yul\":7564:7565   */\n      0x00\n        /* \"#utility.yul\":7553:7562   */\n      dup4\n        /* \"#utility.yul\":7549:7566   */\n      add\n        /* \"#utility.yul\":7540:7546   */\n      dup7\n        /* \"#utility.yul\":7496:7567   */\n      tag_91\n      jump\t// in\n    tag_196:\n        /* \"#utility.yul\":7577:7649   */\n      tag_197\n        /* \"#utility.yul\":7645:7647   */\n      0x20\n        /* \"#utility.yul\":7634:7643   */\n      dup4\n        /* \"#utility.yul\":7630:7648   */\n      add\n        /* \"#utility.yul\":7621:7627   */\n      dup6\n        /* \"#utility.yul\":7577:7649   */\n      tag_92\n      jump\t// in\n    tag_197:\n        /* \"#utility.yul\":7659:7725   */\n      tag_198\n        /* \"#utility.yul\":7721:7723   */\n      0x40\n        /* \"#utility.yul\":7710:7719   */\n      dup4\n        /* \"#utility.yul\":7706:7724   */\n      add\n        /* \"#utility.yul\":7697:7703   */\n      dup5\n        /* \"#utility.yul\":7659:7725   */\n      tag_94\n      jump\t// in\n    tag_198:\n        /* \"#utility.yul\":7302:7732   */\n      swap5\n      swap4\n      pop\n      pop\n      pop\n      pop\n      jump\t// out\n        /* \"#utility.yul\":7738:7960   */\n    tag_32:\n        /* \"#utility.yul\":7831:7835   */\n      0x00\n        /* \"#utility.yul\":7869:7871   */\n      0x20\n        /* \"#utility.yul\":7858:7867   */\n      dup3\n        /* \"#utility.yul\":7854:7872   */\n      add\n        /* \"#utility.yul\":7846:7872   */\n      swap1\n      pop\n        /* \"#utility.yul\":7882:7953   */\n      tag_200\n        /* \"#utility.yul\":7950:7951   */\n      0x00\n        /* \"#utility.yul\":7939:7948   */\n      dup4\n        /* \"#utility.yul\":7935:7952   */\n      add\n        /* \"#utility.yul\":7926:7932   */\n      dup5\n        /* \"#utility.yul\":7882:7953   */\n      tag_92\n      jump\t// in\n    tag_200:\n        /* \"#utility.yul\":7738:7960   */\n      swap3\n      swap2\n      pop\n      pop\n      jump\t// out\n        /* \"#utility.yul\":7966:8135   */\n    tag_95:\n        /* \"#utility.yul\":8050:8061   */\n      0x00\n        /* \"#utility.yul\":8084:8090   */\n      dup3\n        /* \"#utility.yul\":8079:8082   */\n      dup3\n        /* \"#utility.yul\":8072:8091   */\n      mstore\n        /* \"#utility.yul\":8124:8128   */\n      0x20\n        /* \"#utility.yul\":8119:8122   */\n      dup3\n        /* \"#utility.yul\":8115:8129   */\n      add\n        /* \"#utility.yul\":8100:8129   */\n      swap1\n      pop\n        /* \"#utility.yul\":7966:8135   */\n      swap3\n      swap2\n      pop\n      pop\n      jump\t// out\n        /* \"#utility.yul\":8141:8304   */\n    tag_96:\n        /* \"#utility.yul\":8281:8296   */\n      0x4e65656420736f6d652045544800000000000000000000000000000000000000\n        /* \"#utility.yul\":8277:8278   */\n      0x00\n        /* \"#utility.yul\":8269:8275   */\n      dup3\n        /* \"#utility.yul\":8265:8279   */\n      add\n        /* \"#utility.yul\":8258:8297   */\n      mstore\n        /* \"#utility.yul\":8141:8304   */\n      pop\n      jump\t// out\n        /* \"#utility.yul\":8310:8676   */\n    tag_97:\n        /* \"#utility.yul\":8452:8455   */\n      0x00\n        /* \"#utility.yul\":8473:8540   */\n      tag_204\n        /* \"#utility.yul\":8537:8539   */\n      0x0d\n        /* \"#utility.yul\":8532:8535   */\n      dup4\n        /* \"#utility.yul\":8473:8540   */\n      tag_95\n      jump\t// in\n    tag_204:\n        /* \"#utility.yul\":8466:8540   */\n      swap2\n      pop\n        /* \"#utility.yul\":8549:8642   */\n      tag_205\n        /* \"#utility.yul\":8638:8641   */\n      dup3\n        /* \"#utility.yul\":8549:8642   */\n      tag_96\n      jump\t// in\n    tag_205:\n        /* \"#utility.yul\":8667:8669   */\n      0x20\n        /* \"#utility.yul\":8662:8665   */\n      dup3\n        /* \"#utility.yul\":8658:8670   */\n      add\n        /* \"#utility.yul\":8651:8670   */\n      swap1\n      pop\n        /* \"#utility.yul\":8310:8676   */\n      swap2\n      swap1\n      pop\n      jump\t// out\n        /* \"#utility.yul\":8682:9101   */\n    tag_36:\n        /* \"#utility.yul\":8848:8852   */\n      0x00\n        /* \"#utility.yul\":8886:8888   */\n      0x20\n        /* \"#utility.yul\":8875:8884   */\n      dup3\n        /* \"#utility.yul\":8871:8889   */\n      add\n        /* \"#utility.yul\":8863:8889   */\n      swap1\n      pop\n        /* \"#utility.yul\":8935:8944   */\n      dup2\n        /* \"#utility.yul\":8929:8933   */\n      dup2\n        /* \"#utility.yul\":8925:8945   */\n      sub\n        /* \"#utility.yul\":8921:8922   */\n      0x00\n        /* \"#utility.yul\":8910:8919   */\n      dup4\n        /* \"#utility.yul\":8906:8923   */\n      add\n        /* \"#utility.yul\":8899:8946   */\n      mstore\n        /* \"#utility.yul\":8963:9094   */\n      tag_207\n        /* \"#utility.yul\":9089:9093   */\n      dup2\n        /* \"#utility.yul\":8963:9094   */\n      tag_97\n      jump\t// in\n    tag_207:\n        /* \"#utility.yul\":8955:9094   */\n      swap1\n      pop\n        /* \"#utility.yul\":8682:9101   */\n      swap2\n      swap1\n      pop\n      jump\t// out\n        /* \"#utility.yul\":9107:9270   */\n    tag_98:\n        /* \"#utility.yul\":9247:9262   */\n      0x44617461206d69736d6174636800000000000000000000000000000000000000\n        /* \"#utility.yul\":9243:9244   */\n      0x00\n        /* \"#utility.yul\":9235:9241   */\n      dup3\n        /* \"#utility.yul\":9231:9245   */\n      add\n        /* \"#utility.yul\":9224:9263   */\n      mstore\n        /* \"#utility.yul\":9107:9270   */\n      pop\n      jump\t// out\n        /* \"#utility.yul\":9276:9642   */\n    tag_99:\n        /* \"#utility.yul\":9418:9421   */\n      0x00\n        /* \"#utility.yul\":9439:9506   */\n      tag_210\n        /* \"#utility.yul\":9503:9505   */\n      0x0d\n        /* \"#utility.yul\":9498:9501   */\n      dup4\n        /* \"#utility.yul\":9439:9506   */\n      tag_95\n      jump\t// in\n    tag_210:\n        /* \"#utility.yul\":9432:9506   */\n      swap2\n      pop\n        /* \"#utility.yul\":9515:9608   */\n      tag_211\n        /* \"#utility.yul\":9604:9607   */\n      dup3\n        /* \"#utility.yul\":9515:9608   */\n      tag_98\n      jump\t// in\n    tag_211:\n        /* \"#utility.yul\":9633:9635   */\n      0x20\n        /* \"#utility.yul\":9628:9631   */\n      dup3\n        /* \"#utility.yul\":9624:9636   */\n      add\n        /* \"#utility.yul\":9617:9636   */\n      swap1\n      pop\n        /* \"#utility.yul\":9276:9642   */\n      swap2\n      swap1\n      pop\n      jump\t// out\n        /* \"#utility.yul\":9648:10067   */\n    tag_39:\n        /* \"#utility.yul\":9814:9818   */\n      0x00\n        /* \"#utility.yul\":9852:9854   */\n      0x20\n        /* \"#utility.yul\":9841:9850   */\n      dup3\n        /* \"#utility.yul\":9837:9855   */\n      add\n        /* \"#utility.yul\":9829:9855   */\n      swap1\n      pop\n        /* \"#utility.yul\":9901:9910   */\n      dup2\n        /* \"#utility.yul\":9895:9899   */\n      dup2\n        /* \"#utility.yul\":9891:9911   */\n      sub\n        /* \"#utility.yul\":9887:9888   */\n      0x00\n        /* \"#utility.yul\":9876:9885   */\n      dup4\n        /* \"#utility.yul\":9872:9889   */\n      add\n        /* \"#utility.yul\":9865:9912   */\n      mstore\n        /* \"#utility.yul\":9929:10060   */\n      tag_213\n        /* \"#utility.yul\":10055:10059   */\n      dup2\n        /* \"#utility.yul\":9929:10060   */\n      tag_99\n      jump\t// in\n    tag_213:\n        /* \"#utility.yul\":9921:10060   */\n      swap1\n      pop\n        /* \"#utility.yul\":9648:10067   */\n      swap2\n      swap1\n      pop\n      jump\t// out\n        /* \"#utility.yul\":10073:10253   */\n    tag_100:\n        /* \"#utility.yul\":10121:10198   */\n      0x4e487b7100000000000000000000000000000000000000000000000000000000\n        /* \"#utility.yul\":10118:10119   */\n      0x00\n        /* \"#utility.yul\":10111:10199   */\n      mstore\n        /* \"#utility.yul\":10218:10222   */\n      0x12\n        /* \"#utility.yul\":10215:10216   */\n      0x04\n        /* \"#utility.yul\":10208:10223   */\n      mstore\n        /* \"#utility.yul\":10242:10246   */\n      0x24\n        /* \"#utility.yul\":10239:10240   */\n      0x00\n        /* \"#utility.yul\":10232:10247   */\n      revert\n        /* \"#utility.yul\":10445:10630   */\n    tag_41:\n        /* \"#utility.yul\":10485:10486   */\n      0x00\n        /* \"#utility.yul\":10502:10522   */\n      tag_217\n        /* \"#utility.yul\":10520:10521   */\n      dup3\n        /* \"#utility.yul\":10502:10522   */\n      tag_86\n      jump\t// in\n    tag_217:\n        /* \"#utility.yul\":10497:10522   */\n      swap2\n      pop\n        /* \"#utility.yul\":10536:10556   */\n      tag_218\n        /* \"#utility.yul\":10554:10555   */\n      dup4\n        /* \"#utility.yul\":10536:10556   */\n      tag_86\n      jump\t// in\n    tag_218:\n        /* \"#utility.yul\":10531:10556   */\n      swap3\n      pop\n        /* \"#utility.yul\":10575:10576   */\n      dup3\n        /* \"#utility.yul\":10565:10600   */\n      tag_219\n      jumpi\n        /* \"#utility.yul\":10580:10598   */\n      tag_220\n      tag_100\n      jump\t// in\n    tag_220:\n        /* \"#utility.yul\":10565:10600   */\n    tag_219:\n        /* \"#utility.yul\":10622:10623   */\n      dup3\n        /* \"#utility.yul\":10619:10620   */\n      dup3\n        /* \"#utility.yul\":10615:10624   */\n      div\n        /* \"#utility.yul\":10610:10624   */\n      swap1\n      pop\n        /* \"#utility.yul\":10445:10630   */\n      swap3\n      swap2\n      pop\n      pop\n      jump\t// out\n        /* \"#utility.yul\":10636:10816   */\n    tag_47:\n        /* \"#utility.yul\":10684:10761   */\n      0x4e487b7100000000000000000000000000000000000000000000000000000000\n        /* \"#utility.yul\":10681:10682   */\n      0x00\n        /* \"#utility.yul\":10674:10762   */\n      mstore\n        /* \"#utility.yul\":10781:10785   */\n      0x32\n        /* \"#utility.yul\":10778:10779   */\n      0x04\n        /* \"#utility.yul\":10771:10786   */\n      mstore\n        /* \"#utility.yul\":10805:10809   */\n      0x24\n        /* \"#utility.yul\":10802:10803   */\n      0x00\n        /* \"#utility.yul\":10795:10810   */\n      revert\n        /* \"#utility.yul\":10822:10996   */\n    tag_102:\n        /* \"#utility.yul\":10962:10988   */\n      0x596f7520617265206e6f742061206772616e646368696c640000000000000000\n        /* \"#utility.yul\":10958:10959   */\n      0x00\n        /* \"#utility.yul\":10950:10956   */\n      dup3\n        /* \"#utility.yul\":10946:10960   */\n      add\n        /* \"#utility.yul\":10939:10989   */\n      mstore\n        /* \"#utility.yul\":10822:10996   */\n      pop\n      jump\t// out\n        /* \"#utility.yul\":11002:11368   */\n    tag_103:\n        /* \"#utility.yul\":11144:11147   */\n      0x00\n        /* \"#utility.yul\":11165:11232   */\n      tag_224\n        /* \"#utility.yul\":11229:11231   */\n      0x18\n        /* \"#utility.yul\":11224:11227   */\n      dup4\n        /* \"#utility.yul\":11165:11232   */\n      tag_95\n      jump\t// in\n    tag_224:\n        /* \"#utility.yul\":11158:11232   */\n      swap2\n      pop\n        /* \"#utility.yul\":11241:11334   */\n      tag_225\n        /* \"#utility.yul\":11330:11333   */\n      dup3\n        /* \"#utility.yul\":11241:11334   */\n      tag_102\n      jump\t// in\n    tag_225:\n        /* \"#utility.yul\":11359:11361   */\n      0x20\n        /* \"#utility.yul\":11354:11357   */\n      dup3\n        /* \"#utility.yul\":11350:11362   */\n      add\n        /* \"#utility.yul\":11343:11362   */\n      swap1\n      pop\n        /* \"#utility.yul\":11002:11368   */\n      swap2\n      swap1\n      pop\n      jump\t// out\n        /* \"#utility.yul\":11374:11793   */\n    tag_60:\n        /* \"#utility.yul\":11540:11544   */\n      0x00\n        /* \"#utility.yul\":11578:11580   */\n      0x20\n        /* \"#utility.yul\":11567:11576   */\n      dup3\n        /* \"#utility.yul\":11563:11581   */\n      add\n        /* \"#utility.yul\":11555:11581   */\n      swap1\n      pop\n        /* \"#utility.yul\":11627:11636   */\n      dup2\n        /* \"#utility.yul\":11621:11625   */\n      dup2\n        /* \"#utility.yul\":11617:11637   */\n      sub\n        /* \"#utility.yul\":11613:11614   */\n      0x00\n        /* \"#utility.yul\":11602:11611   */\n      dup4\n        /* \"#utility.yul\":11598:11615   */\n      add\n        /* \"#utility.yul\":11591:11638   */\n      mstore\n        /* \"#utility.yul\":11655:11786   */\n      tag_227\n        /* \"#utility.yul\":11781:11785   */\n      dup2\n        /* \"#utility.yul\":11655:11786   */\n      tag_103\n      jump\t// in\n    tag_227:\n        /* \"#utility.yul\":11647:11786   */\n      swap1\n      pop\n        /* \"#utility.yul\":11374:11793   */\n      swap2\n      swap1\n      pop\n      jump\t// out\n        /* \"#utility.yul\":11799:11972   */\n    tag_104:\n        /* \"#utility.yul\":11939:11964   */\n      0x5761697420666f7220796f757220626972746864617921000000000000000000\n        /* \"#utility.yul\":11935:11936   */\n      0x00\n        /* \"#utility.yul\":11927:11933   */\n      dup3\n        /* \"#utility.yul\":11923:11937   */\n      add\n        /* \"#utility.yul\":11916:11965   */\n      mstore\n        /* \"#utility.yul\":11799:11972   */\n      pop\n      jump\t// out\n        /* \"#utility.yul\":11978:12344   */\n    tag_105:\n        /* \"#utility.yul\":12120:12123   */\n      0x00\n        /* \"#utility.yul\":12141:12208   */\n      tag_230\n        /* \"#utility.yul\":12205:12207   */\n      0x17\n        /* \"#utility.yul\":12200:12203   */\n      dup4\n        /* \"#utility.yul\":12141:12208   */\n      tag_95\n      jump\t// in\n    tag_230:\n        /* \"#utility.yul\":12134:12208   */\n      swap2\n      pop\n        /* \"#utility.yul\":12217:12310   */\n      tag_231\n        /* \"#utility.yul\":12306:12309   */\n      dup3\n        /* \"#utility.yul\":12217:12310   */\n      tag_104\n      jump\t// in\n    tag_231:\n        /* \"#utility.yul\":12335:12337   */\n      0x20\n        /* \"#utility.yul\":12330:12333   */\n      dup3\n        /* \"#utility.yul\":12326:12338   */\n      add\n        /* \"#utility.yul\":12319:12338   */\n      swap1\n      pop\n        /* \"#utility.yul\":11978:12344   */\n      swap2\n      swap1\n      pop\n      jump\t// out\n        /* \"#utility.yul\":12350:12769   */\n    tag_63:\n        /* \"#utility.yul\":12516:12520   */\n      0x00\n        /* \"#utility.yul\":12554:12556   */\n      0x20\n        /* \"#utility.yul\":12543:12552   */\n      dup3\n        /* \"#utility.yul\":12539:12557   */\n      add\n        /* \"#utility.yul\":12531:12557   */\n      swap1\n      pop\n        /* \"#utility.yul\":12603:12612   */\n      dup2\n        /* \"#utility.yul\":12597:12601   */\n      dup2\n        /* \"#utility.yul\":12593:12613   */\n      sub\n        /* \"#utility.yul\":12589:12590   */\n      0x00\n        /* \"#utility.yul\":12578:12587   */\n      dup4\n        /* \"#utility.yul\":12574:12591   */\n      add\n        /* \"#utility.yul\":12567:12614   */\n      mstore\n        /* \"#utility.yul\":12631:12762   */\n      tag_233\n        /* \"#utility.yul\":12757:12761   */\n      dup2\n        /* \"#utility.yul\":12631:12762   */\n      tag_105\n      jump\t// in\n    tag_233:\n        /* \"#utility.yul\":12623:12762   */\n      swap1\n      pop\n        /* \"#utility.yul\":12350:12769   */\n      swap2\n      swap1\n      pop\n      jump\t// out\n        /* \"#utility.yul\":12775:12938   */\n    tag_106:\n        /* \"#utility.yul\":12915:12930   */\n      0x416c72656164792074616b656e00000000000000000000000000000000000000\n        /* \"#utility.yul\":12911:12912   */\n      0x00\n        /* \"#utility.yul\":12903:12909   */\n      dup3\n        /* \"#utility.yul\":12899:12913   */\n      add\n        /* \"#utility.yul\":12892:12931   */\n      mstore\n        /* \"#utility.yul\":12775:12938   */\n      pop\n      jump\t// out\n        /* \"#utility.yul\":12944:13310   */\n    tag_107:\n        /* \"#utility.yul\":13086:13089   */\n      0x00\n        /* \"#utility.yul\":13107:13174   */\n      tag_236\n        /* \"#utility.yul\":13171:13173   */\n      0x0d\n        /* \"#utility.yul\":13166:13169   */\n      dup4\n        /* \"#utility.yul\":13107:13174   */\n      tag_95\n      jump\t// in\n    tag_236:\n        /* \"#utility.yul\":13100:13174   */\n      swap2\n      pop\n        /* \"#utility.yul\":13183:13276   */\n      tag_237\n        /* \"#utility.yul\":13272:13275   */\n      dup3\n        /* \"#utility.yul\":13183:13276   */\n      tag_106\n      jump\t// in\n    tag_237:\n        /* \"#utility.yul\":13301:13303   */\n      0x20\n        /* \"#utility.yul\":13296:13299   */\n      dup3\n        /* \"#utility.yul\":13292:13304   */\n      add\n        /* \"#utility.yul\":13285:13304   */\n      swap1\n      pop\n        /* \"#utility.yul\":12944:13310   */\n      swap2\n      swap1\n      pop\n      jump\t// out\n        /* \"#utility.yul\":13316:13735   */\n    tag_66:\n        /* \"#utility.yul\":13482:13486   */\n      0x00\n        /* \"#utility.yul\":13520:13522   */\n      0x20\n        /* \"#utility.yul\":13509:13518   */\n      dup3\n        /* \"#utility.yul\":13505:13523   */\n      add\n        /* \"#utility.yul\":13497:13523   */\n      swap1\n      pop\n        /* \"#utility.yul\":13569:13578   */\n      dup2\n        /* \"#utility.yul\":13563:13567   */\n      dup2\n        /* \"#utility.yul\":13559:13579   */\n      sub\n        /* \"#utility.yul\":13555:13556   */\n      0x00\n        /* \"#utility.yul\":13544:13553   */\n      dup4\n        /* \"#utility.yul\":13540:13557   */\n      add\n        /* \"#utility.yul\":13533:13580   */\n      mstore\n        /* \"#utility.yul\":13597:13728   */\n      tag_239\n        /* \"#utility.yul\":13723:13727   */\n      dup2\n        /* \"#utility.yul\":13597:13728   */\n      tag_107\n      jump\t// in\n    tag_239:\n        /* \"#utility.yul\":13589:13728   */\n      swap1\n      pop\n        /* \"#utility.yul\":13316:13735   */\n      swap2\n      swap1\n      pop\n      jump\t// out\n\n    auxdata: 0xa2646970667358221220aa841996f11562aaff535fcf3e23e9137465a5a69cbb34a49bc87cb63fc188de64736f6c634300081f0033\n}\n",
				"bytecode": {
					"linkReferences": {},
					"object": "6080604052348015600e575f5ffd5b50610cd18061001c5f395ff3fe608060405260043610610049575f3560e01c8063124a07e51461004d57806380c9419e14610069578063940af594146100a5578063b0ebb261146100e3578063ea3e6718146100f9575b5f5ffd5b6100676004803603810190610062919061088e565b610123565b005b348015610074575f5ffd5b5061008f600480360381019061008a9190610904565b610383565b60405161009c919061093e565b60405180910390f35b3480156100b0575f5ffd5b506100cb60048036038101906100c69190610957565b6103be565b6040516100da939291906109ab565b60405180910390f35b3480156100ee575f5ffd5b506100f761040e565b005b348015610104575f5ffd5b5061010d6105da565b60405161011a91906109e0565b60405180910390f35b5f3411610165576040517f08c379a000000000000000000000000000000000000000000000000000000000815260040161015c90610a53565b60405180910390fd5b80518251146101a9576040517f08c379a00000000000000000000000000000000000000000000000000000000081526004016101a090610abb565b60405180910390fd5b8151346101b69190610b06565b6001819055505f5f90505b825181101561037e5760405180606001604052808483815181106101e8576101e7610b36565b5b602002602001015173ffffffffffffffffffffffffffffffffffffffff16815260200183838151811061021e5761021d610b36565b5b602002602001015181526020015f15158152505f5f85848151811061024657610245610b36565b5b602002602001015173ffffffffffffffffffffffffffffffffffffffff1673ffffffffffffffffffffffffffffffffffffffff1681526020019081526020015f205f820151815f015f6101000a81548173ffffffffffffffffffffffffffffffffffffffff021916908373ffffffffffffffffffffffffffffffffffffffff160217905550602082015181600101556040820151816002015f6101000a81548160ff021916908315150217905550905050600283828151811061030c5761030b610b36565b5b6020026020010151908060018154018082558091505060019003905f5260205f20015f9091909190916101000a81548173ffffffffffffffffffffffffffffffffffffffff021916908373ffffffffffffffffffffffffffffffffffffffff16021790555080806001019150506101c1565b505050565b60028181548110610392575f80fd5b905f5260205f20015f915054906101000a900473ffffffffffffffffffffffffffffffffffffffff1681565b5f602052805f5260405f205f91509050805f015f9054906101000a900473ffffffffffffffffffffffffffffffffffffffff1690806001015490806002015f9054906101000a900460ff16905083565b5f5f5f3373ffffffffffffffffffffffffffffffffffffffff1673ffffffffffffffffffffffffffffffffffffffff1681526020019081526020015f2090503373ffffffffffffffffffffffffffffffffffffffff16815f015f9054906101000a900473ffffffffffffffffffffffffffffffffffffffff1673ffffffffffffffffffffffffffffffffffffffff16146104dd576040517f08c379a00000000000000000000000000000000000000000000000000000000081526004016104d490610bad565b60405180910390fd5b8060010154421015610524576040517f08c379a000000000000000000000000000000000000000000000000000000000815260040161051b90610c15565b60405180910390fd5b806002015f9054906101000a900460ff1615610575576040517f08c379a000000000000000000000000000000000000000000000000000000000815260040161056c90610c7d565b60405180910390fd5b6001816002015f6101000a81548160ff0219169083151502179055503373ffffffffffffffffffffffffffffffffffffffff166108fc60015490811502906040515f60405180830381858888f193505050501580156105d6573d5f5f3e3d5ffd5b5050565b60015481565b5f604051905090565b5f5ffd5b5f5ffd5b5f5ffd5b5f601f19601f8301169050919050565b7f4e487b71000000000000000000000000000000000000000000000000000000005f52604160045260245ffd5b61063b826105f5565b810181811067ffffffffffffffff8211171561065a57610659610605565b5b80604052505050565b5f61066c6105e0565b90506106788282610632565b919050565b5f67ffffffffffffffff82111561069757610696610605565b5b602082029050602081019050919050565b5f5ffd5b5f73ffffffffffffffffffffffffffffffffffffffff82169050919050565b5f6106d5826106ac565b9050919050565b6106e5816106cb565b81146106ef575f5ffd5b50565b5f81359050610700816106dc565b92915050565b5f6107186107138461067d565b610663565b9050808382526020820190506020840283018581111561073b5761073a6106a8565b5b835b81811015610764578061075088826106f2565b84526020840193505060208101905061073d565b5050509392505050565b5f82601f830112610782576107816105f1565b5b8135610792848260208601610706565b91505092915050565b5f67ffffffffffffffff8211156107b5576107b4610605565b5b602082029050602081019050919050565b5f819050919050565b6107d8816107c6565b81146107e2575f5ffd5b50565b5f813590506107f3816107cf565b92915050565b5f61080b6108068461079b565b610663565b9050808382526020820190506020840283018581111561082e5761082d6106a8565b5b835b81811015610857578061084388826107e5565b845260208401935050602081019050610830565b5050509392505050565b5f82601f830112610875576108746105f1565b5b81356108858482602086016107f9565b91505092915050565b5f5f604083850312156108a4576108a36105e9565b5b5f83013567ffffffffffffffff8111156108c1576108c06105ed565b5b6108cd8582860161076e565b925050602083013567ffffffffffffffff8111156108ee576108ed6105ed565b5b6108fa85828601610861565b9150509250929050565b5f60208284031215610919576109186105e9565b5b5f610926848285016107e5565b91505092915050565b610938816106cb565b82525050565b5f6020820190506109515f83018461092f565b92915050565b5f6020828403121561096c5761096b6105e9565b5b5f610979848285016106f2565b91505092915050565b61098b816107c6565b82525050565b5f8115159050919050565b6109a581610991565b82525050565b5f6060820190506109be5f83018661092f565b6109cb6020830185610982565b6109d8604083018461099c565b949350505050565b5f6020820190506109f35f830184610982565b92915050565b5f82825260208201905092915050565b7f4e65656420736f6d6520455448000000000000000000000000000000000000005f82015250565b5f610a3d600d836109f9565b9150610a4882610a09565b602082019050919050565b5f6020820190508181035f830152610a6a81610a31565b9050919050565b7f44617461206d69736d61746368000000000000000000000000000000000000005f82015250565b5f610aa5600d836109f9565b9150610ab082610a71565b602082019050919050565b5f6020820190508181035f830152610ad281610a99565b9050919050565b7f4e487b71000000000000000000000000000000000000000000000000000000005f52601260045260245ffd5b5f610b10826107c6565b9150610b1b836107c6565b925082610b2b57610b2a610ad9565b5b828204905092915050565b7f4e487b71000000000000000000000000000000000000000000000000000000005f52603260045260245ffd5b7f596f7520617265206e6f742061206772616e646368696c6400000000000000005f82015250565b5f610b976018836109f9565b9150610ba282610b63565b602082019050919050565b5f6020820190508181035f830152610bc481610b8b565b9050919050565b7f5761697420666f7220796f7572206269727468646179210000000000000000005f82015250565b5f610bff6017836109f9565b9150610c0a82610bcb565b602082019050919050565b5f6020820190508181035f830152610c2c81610bf3565b9050919050565b7f416c72656164792074616b656e000000000000000000000000000000000000005f82015250565b5f610c67600d836109f9565b9150610c7282610c33565b602082019050919050565b5f6020820190508181035f830152610c9481610c5b565b905091905056fea2646970667358221220aa841996f11562aaff535fcf3e23e9137465a5a69cbb34a49bc87cb63fc188de64736f6c634300081f0033",
					"opcodes": "PUSH1 0x80 PUSH1 0x40 MSTORE CALLVALUE DUP1 ISZERO PUSH1 0xE JUMPI PUSH0 PUSH0 REVERT JUMPDEST POP PUSH2 0xCD1 DUP1 PUSH2 0x1C PUSH0 CODECOPY PUSH0 RETURN INVALID PUSH1 0x80 PUSH1 0x40 MSTORE PUSH1 0x4 CALLDATASIZE LT PUSH2 0x49 JUMPI PUSH0 CALLDATALOAD PUSH1 0xE0 SHR DUP1 PUSH4 0x124A07E5 EQ PUSH2 0x4D JUMPI DUP1 PUSH4 0x80C9419E EQ PUSH2 0x69 JUMPI DUP1 PUSH4 0x940AF594 EQ PUSH2 0xA5 JUMPI DUP1 PUSH4 0xB0EBB261 EQ PUSH2 0xE3 JUMPI DUP1 PUSH4 0xEA3E6718 EQ PUSH2 0xF9 JUMPI JUMPDEST PUSH0 PUSH0 REVERT JUMPDEST PUSH2 0x67 PUSH1 0x4 DUP1 CALLDATASIZE SUB DUP2 ADD SWAP1 PUSH2 0x62 SWAP2 SWAP1 PUSH2 0x88E JUMP JUMPDEST PUSH2 0x123 JUMP JUMPDEST STOP JUMPDEST CALLVALUE DUP1 ISZERO PUSH2 0x74 JUMPI PUSH0 PUSH0 REVERT JUMPDEST POP PUSH2 0x8F PUSH1 0x4 DUP1 CALLDATASIZE SUB DUP2 ADD SWAP1 PUSH2 0x8A SWAP2 SWAP1 PUSH2 0x904 JUMP JUMPDEST PUSH2 0x383 JUMP JUMPDEST PUSH1 0x40 MLOAD PUSH2 0x9C SWAP2 SWAP1 PUSH2 0x93E JUMP JUMPDEST PUSH1 0x40 MLOAD DUP1 SWAP2 SUB SWAP1 RETURN JUMPDEST CALLVALUE DUP1 ISZERO PUSH2 0xB0 JUMPI PUSH0 PUSH0 REVERT JUMPDEST POP PUSH2 0xCB PUSH1 0x4 DUP1 CALLDATASIZE SUB DUP2 ADD SWAP1 PUSH2 0xC6 SWAP2 SWAP1 PUSH2 0x957 JUMP JUMPDEST PUSH2 0x3BE JUMP JUMPDEST PUSH1 0x40 MLOAD PUSH2 0xDA SWAP4 SWAP3 SWAP2 SWAP1 PUSH2 0x9AB JUMP JUMPDEST PUSH1 0x40 MLOAD DUP1 SWAP2 SUB SWAP1 RETURN JUMPDEST CALLVALUE DUP1 ISZERO PUSH2 0xEE JUMPI PUSH0 PUSH0 REVERT JUMPDEST POP PUSH2 0xF7 PUSH2 0x40E JUMP JUMPDEST STOP JUMPDEST CALLVALUE DUP1 ISZERO PUSH2 0x104 JUMPI PUSH0 PUSH0 REVERT JUMPDEST POP PUSH2 0x10D PUSH2 0x5DA JUMP JUMPDEST PUSH1 0x40 MLOAD PUSH2 0x11A SWAP2 SWAP1 PUSH2 0x9E0 JUMP JUMPDEST PUSH1 0x40 MLOAD DUP1 SWAP2 SUB SWAP1 RETURN JUMPDEST PUSH0 CALLVALUE GT PUSH2 0x165 JUMPI PUSH1 0x40 MLOAD PUSH32 0x8C379A000000000000000000000000000000000000000000000000000000000 DUP2 MSTORE PUSH1 0x4 ADD PUSH2 0x15C SWAP1 PUSH2 0xA53 JUMP JUMPDEST PUSH1 0x40 MLOAD DUP1 SWAP2 SUB SWAP1 REVERT JUMPDEST DUP1 MLOAD DUP3 MLOAD EQ PUSH2 0x1A9 JUMPI PUSH1 0x40 MLOAD PUSH32 0x8C379A000000000000000000000000000000000000000000000000000000000 DUP2 MSTORE PUSH1 0x4 ADD PUSH2 0x1A0 SWAP1 PUSH2 0xABB JUMP JUMPDEST PUSH1 0x40 MLOAD DUP1 SWAP2 SUB SWAP1 REVERT JUMPDEST DUP2 MLOAD CALLVALUE PUSH2 0x1B6 SWAP2 SWAP1 PUSH2 0xB06 JUMP JUMPDEST PUSH1 0x1 DUP2 SWAP1 SSTORE POP PUSH0 PUSH0 SWAP1 POP JUMPDEST DUP3 MLOAD DUP2 LT ISZERO PUSH2 0x37E JUMPI PUSH1 0x40 MLOAD DUP1 PUSH1 0x60 ADD PUSH1 0x40 MSTORE DUP1 DUP5 DUP4 DUP2 MLOAD DUP2 LT PUSH2 0x1E8 JUMPI PUSH2 0x1E7 PUSH2 0xB36 JUMP JUMPDEST JUMPDEST PUSH1 0x20 MUL PUSH1 0x20 ADD ADD MLOAD PUSH20 0xFFFFFFFFFFFFFFFFFFFFFFFFFFFFFFFFFFFFFFFF AND DUP2 MSTORE PUSH1 0x20 ADD DUP4 DUP4 DUP2 MLOAD DUP2 LT PUSH2 0x21E JUMPI PUSH2 0x21D PUSH2 0xB36 JUMP JUMPDEST JUMPDEST PUSH1 0x20 MUL PUSH1 0x20 ADD ADD MLOAD DUP2 MSTORE PUSH1 0x20 ADD PUSH0 ISZERO ISZERO DUP2 MSTORE POP PUSH0 PUSH0 DUP6 DUP5 DUP2 MLOAD DUP2 LT PUSH2 0x246 JUMPI PUSH2 0x245 PUSH2 0xB36 JUMP JUMPDEST JUMPDEST PUSH1 0x20 MUL PUSH1 0x20 ADD ADD MLOAD PUSH20 0xFFFFFFFFFFFFFFFFFFFFFFFFFFFFFFFFFFFFFFFF AND PUSH20 0xFFFFFFFFFFFFFFFFFFFFFFFFFFFFFFFFFFFFFFFF AND DUP2 MSTORE PUSH1 0x20 ADD SWAP1 DUP2 MSTORE PUSH1 0x20 ADD PUSH0 KECCAK256 PUSH0 DUP3 ADD MLOAD DUP2 PUSH0 ADD PUSH0 PUSH2 0x100 EXP DUP2 SLOAD DUP2 PUSH20 0xFFFFFFFFFFFFFFFFFFFFFFFFFFFFFFFFFFFFFFFF MUL NOT AND SWAP1 DUP4 PUSH20 0xFFFFFFFFFFFFFFFFFFFFFFFFFFFFFFFFFFFFFFFF AND MUL OR SWAP1 SSTORE POP PUSH1 0x20 DUP3 ADD MLOAD DUP2 PUSH1 0x1 ADD SSTORE PUSH1 0x40 DUP3 ADD MLOAD DUP2 PUSH1 0x2 ADD PUSH0 PUSH2 0x100 EXP DUP2 SLOAD DUP2 PUSH1 0xFF MUL NOT AND SWAP1 DUP4 ISZERO ISZERO MUL OR SWAP1 SSTORE POP SWAP1 POP POP PUSH1 0x2 DUP4 DUP3 DUP2 MLOAD DUP2 LT PUSH2 0x30C JUMPI PUSH2 0x30B PUSH2 0xB36 JUMP JUMPDEST JUMPDEST PUSH1 0x20 MUL PUSH1 0x20 ADD ADD MLOAD SWAP1 DUP1 PUSH1 0x1 DUP2 SLOAD ADD DUP1 DUP3 SSTORE DUP1 SWAP2 POP POP PUSH1 0x1 SWAP1 SUB SWAP1 PUSH0 MSTORE PUSH1 0x20 PUSH0 KECCAK256 ADD PUSH0 SWAP1 SWAP2 SWAP1 SWAP2 SWAP1 SWAP2 PUSH2 0x100 EXP DUP2 SLOAD DUP2 PUSH20 0xFFFFFFFFFFFFFFFFFFFFFFFFFFFFFFFFFFFFFFFF MUL NOT AND SWAP1 DUP4 PUSH20 0xFFFFFFFFFFFFFFFFFFFFFFFFFFFFFFFFFFFFFFFF AND MUL OR SWAP1 SSTORE POP DUP1 DUP1 PUSH1 0x1 ADD SWAP2 POP POP PUSH2 0x1C1 JUMP JUMPDEST POP POP POP JUMP JUMPDEST PUSH1 0x2 DUP2 DUP2 SLOAD DUP2 LT PUSH2 0x392 JUMPI PUSH0 DUP1 REVERT JUMPDEST SWAP1 PUSH0 MSTORE PUSH1 0x20 PUSH0 KECCAK256 ADD PUSH0 SWAP2 POP SLOAD SWAP1 PUSH2 0x100 EXP SWAP1 DIV PUSH20 0xFFFFFFFFFFFFFFFFFFFFFFFFFFFFFFFFFFFFFFFF AND DUP2 JUMP JUMPDEST PUSH0 PUSH1 0x20 MSTORE DUP1 PUSH0 MSTORE PUSH1 0x40 PUSH0 KECCAK256 PUSH0 SWAP2 POP SWAP1 POP DUP1 PUSH0 ADD PUSH0 SWAP1 SLOAD SWAP1 PUSH2 0x100 EXP SWAP1 DIV PUSH20 0xFFFFFFFFFFFFFFFFFFFFFFFFFFFFFFFFFFFFFFFF AND SWAP1 DUP1 PUSH1 0x1 ADD SLOAD SWAP1 DUP1 PUSH1 0x2 ADD PUSH0 SWAP1 SLOAD SWAP1 PUSH2 0x100 EXP SWAP1 DIV PUSH1 0xFF AND SWAP1 POP DUP4 JUMP JUMPDEST PUSH0 PUSH0 PUSH0 CALLER PUSH20 0xFFFFFFFFFFFFFFFFFFFFFFFFFFFFFFFFFFFFFFFF AND PUSH20 0xFFFFFFFFFFFFFFFFFFFFFFFFFFFFFFFFFFFFFFFF AND DUP2 MSTORE PUSH1 0x20 ADD SWAP1 DUP2 MSTORE PUSH1 0x20 ADD PUSH0 KECCAK256 SWAP1 POP CALLER PUSH20 0xFFFFFFFFFFFFFFFFFFFFFFFFFFFFFFFFFFFFFFFF AND DUP2 PUSH0 ADD PUSH0 SWAP1 SLOAD SWAP1 PUSH2 0x100 EXP SWAP1 DIV PUSH20 0xFFFFFFFFFFFFFFFFFFFFFFFFFFFFFFFFFFFFFFFF AND PUSH20 0xFFFFFFFFFFFFFFFFFFFFFFFFFFFFFFFFFFFFFFFF AND EQ PUSH2 0x4DD JUMPI PUSH1 0x40 MLOAD PUSH32 0x8C379A000000000000000000000000000000000000000000000000000000000 DUP2 MSTORE PUSH1 0x4 ADD PUSH2 0x4D4 SWAP1 PUSH2 0xBAD JUMP JUMPDEST PUSH1 0x40 MLOAD DUP1 SWAP2 SUB SWAP1 REVERT JUMPDEST DUP1 PUSH1 0x1 ADD SLOAD TIMESTAMP LT ISZERO PUSH2 0x524 JUMPI PUSH1 0x40 MLOAD PUSH32 0x8C379A000000000000000000000000000000000000000000000000000000000 DUP2 MSTORE PUSH1 0x4 ADD PUSH2 0x51B SWAP1 PUSH2 0xC15 JUMP JUMPDEST PUSH1 0x40 MLOAD DUP1 SWAP2 SUB SWAP1 REVERT JUMPDEST DUP1 PUSH1 0x2 ADD PUSH0 SWAP1 SLOAD SWAP1 PUSH2 0x100 EXP SWAP1 DIV PUSH1 0xFF AND ISZERO PUSH2 0x575 JUMPI PUSH1 0x40 MLOAD PUSH32 0x8C379A000000000000000000000000000000000000000000000000000000000 DUP2 MSTORE PUSH1 0x4 ADD PUSH2 0x56C SWAP1 PUSH2 0xC7D JUMP JUMPDEST PUSH1 0x40 MLOAD DUP1 SWAP2 SUB SWAP1 REVERT JUMPDEST PUSH1 0x1 DUP2 PUSH1 0x2 ADD PUSH0 PUSH2 0x100 EXP DUP2 SLOAD DUP2 PUSH1 0xFF MUL NOT AND SWAP1 DUP4 ISZERO ISZERO MUL OR SWAP1 SSTORE POP CALLER PUSH20 0xFFFFFFFFFFFFFFFFFFFFFFFFFFFFFFFFFFFFFFFF AND PUSH2 0x8FC PUSH1 0x1 SLOAD SWAP1 DUP2 ISZERO MUL SWAP1 PUSH1 0x40 MLOAD PUSH0 PUSH1 0x40 MLOAD DUP1 DUP4 SUB DUP2 DUP6 DUP9 DUP9 CALL SWAP4 POP POP POP POP ISZERO DUP1 ISZERO PUSH2 0x5D6 JUMPI RETURNDATASIZE PUSH0 PUSH0 RETURNDATACOPY RETURNDATASIZE PUSH0 REVERT JUMPDEST POP POP JUMP JUMPDEST PUSH1 0x1 SLOAD DUP2 JUMP JUMPDEST PUSH0 PUSH1 0x40 MLOAD SWAP1 POP SWAP1 JUMP JUMPDEST PUSH0 PUSH0 REVERT JUMPDEST PUSH0 PUSH0 REVERT JUMPDEST PUSH0 PUSH0 REVERT JUMPDEST PUSH0 PUSH1 0x1F NOT PUSH1 0x1F DUP4 ADD AND SWAP1 POP SWAP2 SWAP1 POP JUMP JUMPDEST PUSH32 0x4E487B7100000000000000000000000000000000000000000000000000000000 PUSH0 MSTORE PUSH1 0x41 PUSH1 0x4 MSTORE PUSH1 0x24 PUSH0 REVERT JUMPDEST PUSH2 0x63B DUP3 PUSH2 0x5F5 JUMP JUMPDEST DUP2 ADD DUP2 DUP2 LT PUSH8 0xFFFFFFFFFFFFFFFF DUP3 GT OR ISZERO PUSH2 0x65A JUMPI PUSH2 0x659 PUSH2 0x605 JUMP JUMPDEST JUMPDEST DUP1 PUSH1 0x40 MSTORE POP POP POP JUMP JUMPDEST PUSH0 PUSH2 0x66C PUSH2 0x5E0 JUMP JUMPDEST SWAP1 POP PUSH2 0x678 DUP3 DUP3 PUSH2 0x632 JUMP JUMPDEST SWAP2 SWAP1 POP JUMP JUMPDEST PUSH0 PUSH8 0xFFFFFFFFFFFFFFFF DUP3 GT ISZERO PUSH2 0x697 JUMPI PUSH2 0x696 PUSH2 0x605 JUMP JUMPDEST JUMPDEST PUSH1 0x20 DUP3 MUL SWAP1 POP PUSH1 0x20 DUP2 ADD SWAP1 POP SWAP2 SWAP1 POP JUMP JUMPDEST PUSH0 PUSH0 REVERT JUMPDEST PUSH0 PUSH20 0xFFFFFFFFFFFFFFFFFFFFFFFFFFFFFFFFFFFFFFFF DUP3 AND SWAP1 POP SWAP2 SWAP1 POP JUMP JUMPDEST PUSH0 PUSH2 0x6D5 DUP3 PUSH2 0x6AC JUMP JUMPDEST SWAP1 POP SWAP2 SWAP1 POP JUMP JUMPDEST PUSH2 0x6E5 DUP2 PUSH2 0x6CB JUMP JUMPDEST DUP2 EQ PUSH2 0x6EF JUMPI PUSH0 PUSH0 REVERT JUMPDEST POP JUMP JUMPDEST PUSH0 DUP2 CALLDATALOAD SWAP1 POP PUSH2 0x700 DUP2 PUSH2 0x6DC JUMP JUMPDEST SWAP3 SWAP2 POP POP JUMP JUMPDEST PUSH0 PUSH2 0x718 PUSH2 0x713 DUP5 PUSH2 0x67D JUMP JUMPDEST PUSH2 0x663 JUMP JUMPDEST SWAP1 POP DUP1 DUP4 DUP3 MSTORE PUSH1 0x20 DUP3 ADD SWAP1 POP PUSH1 0x20 DUP5 MUL DUP4 ADD DUP6 DUP2 GT ISZERO PUSH2 0x73B JUMPI PUSH2 0x73A PUSH2 0x6A8 JUMP JUMPDEST JUMPDEST DUP4 JUMPDEST DUP2 DUP2 LT ISZERO PUSH2 0x764 JUMPI DUP1 PUSH2 0x750 DUP9 DUP3 PUSH2 0x6F2 JUMP JUMPDEST DUP5 MSTORE PUSH1 0x20 DUP5 ADD SWAP4 POP POP PUSH1 0x20 DUP2 ADD SWAP1 POP PUSH2 0x73D JUMP JUMPDEST POP POP POP SWAP4 SWAP3 POP POP POP JUMP JUMPDEST PUSH0 DUP3 PUSH1 0x1F DUP4 ADD SLT PUSH2 0x782 JUMPI PUSH2 0x781 PUSH2 0x5F1 JUMP JUMPDEST JUMPDEST DUP2 CALLDATALOAD PUSH2 0x792 DUP5 DUP3 PUSH1 0x20 DUP7 ADD PUSH2 0x706 JUMP JUMPDEST SWAP2 POP POP SWAP3 SWAP2 POP POP JUMP JUMPDEST PUSH0 PUSH8 0xFFFFFFFFFFFFFFFF DUP3 GT ISZERO PUSH2 0x7B5 JUMPI PUSH2 0x7B4 PUSH2 0x605 JUMP JUMPDEST JUMPDEST PUSH1 0x20 DUP3 MUL SWAP1 POP PUSH1 0x20 DUP2 ADD SWAP1 POP SWAP2 SWAP1 POP JUMP JUMPDEST PUSH0 DUP2 SWAP1 POP SWAP2 SWAP1 POP JUMP JUMPDEST PUSH2 0x7D8 DUP2 PUSH2 0x7C6 JUMP JUMPDEST DUP2 EQ PUSH2 0x7E2 JUMPI PUSH0 PUSH0 REVERT JUMPDEST POP JUMP JUMPDEST PUSH0 DUP2 CALLDATALOAD SWAP1 POP PUSH2 0x7F3 DUP2 PUSH2 0x7CF JUMP JUMPDEST SWAP3 SWAP2 POP POP JUMP JUMPDEST PUSH0 PUSH2 0x80B PUSH2 0x806 DUP5 PUSH2 0x79B JUMP JUMPDEST PUSH2 0x663 JUMP JUMPDEST SWAP1 POP DUP1 DUP4 DUP3 MSTORE PUSH1 0x20 DUP3 ADD SWAP1 POP PUSH1 0x20 DUP5 MUL DUP4 ADD DUP6 DUP2 GT ISZERO PUSH2 0x82E JUMPI PUSH2 0x82D PUSH2 0x6A8 JUMP JUMPDEST JUMPDEST DUP4 JUMPDEST DUP2 DUP2 LT ISZERO PUSH2 0x857 JUMPI DUP1 PUSH2 0x843 DUP9 DUP3 PUSH2 0x7E5 JUMP JUMPDEST DUP5 MSTORE PUSH1 0x20 DUP5 ADD SWAP4 POP POP PUSH1 0x20 DUP2 ADD SWAP1 POP PUSH2 0x830 JUMP JUMPDEST POP POP POP SWAP4 SWAP3 POP POP POP JUMP JUMPDEST PUSH0 DUP3 PUSH1 0x1F DUP4 ADD SLT PUSH2 0x875 JUMPI PUSH2 0x874 PUSH2 0x5F1 JUMP JUMPDEST JUMPDEST DUP2 CALLDATALOAD PUSH2 0x885 DUP5 DUP3 PUSH1 0x20 DUP7 ADD PUSH2 0x7F9 JUMP JUMPDEST SWAP2 POP POP SWAP3 SWAP2 POP POP JUMP JUMPDEST PUSH0 PUSH0 PUSH1 0x40 DUP4 DUP6 SUB SLT ISZERO PUSH2 0x8A4 JUMPI PUSH2 0x8A3 PUSH2 0x5E9 JUMP JUMPDEST JUMPDEST PUSH0 DUP4 ADD CALLDATALOAD PUSH8 0xFFFFFFFFFFFFFFFF DUP2 GT ISZERO PUSH2 0x8C1 JUMPI PUSH2 0x8C0 PUSH2 0x5ED JUMP JUMPDEST JUMPDEST PUSH2 0x8CD DUP6 DUP3 DUP7 ADD PUSH2 0x76E JUMP JUMPDEST SWAP3 POP POP PUSH1 0x20 DUP4 ADD CALLDATALOAD PUSH8 0xFFFFFFFFFFFFFFFF DUP2 GT ISZERO PUSH2 0x8EE JUMPI PUSH2 0x8ED PUSH2 0x5ED JUMP JUMPDEST JUMPDEST PUSH2 0x8FA DUP6 DUP3 DUP7 ADD PUSH2 0x861 JUMP JUMPDEST SWAP2 POP POP SWAP3 POP SWAP3 SWAP1 POP JUMP JUMPDEST PUSH0 PUSH1 0x20 DUP3 DUP5 SUB SLT ISZERO PUSH2 0x919 JUMPI PUSH2 0x918 PUSH2 0x5E9 JUMP JUMPDEST JUMPDEST PUSH0 PUSH2 0x926 DUP5 DUP3 DUP6 ADD PUSH2 0x7E5 JUMP JUMPDEST SWAP2 POP POP SWAP3 SWAP2 POP POP JUMP JUMPDEST PUSH2 0x938 DUP2 PUSH2 0x6CB JUMP JUMPDEST DUP3 MSTORE POP POP JUMP JUMPDEST PUSH0 PUSH1 0x20 DUP3 ADD SWAP1 POP PUSH2 0x951 PUSH0 DUP4 ADD DUP5 PUSH2 0x92F JUMP JUMPDEST SWAP3 SWAP2 POP POP JUMP JUMPDEST PUSH0 PUSH1 0x20 DUP3 DUP5 SUB SLT ISZERO PUSH2 0x96C JUMPI PUSH2 0x96B PUSH2 0x5E9 JUMP JUMPDEST JUMPDEST PUSH0 PUSH2 0x979 DUP5 DUP3 DUP6 ADD PUSH2 0x6F2 JUMP JUMPDEST SWAP2 POP POP SWAP3 SWAP2 POP POP JUMP JUMPDEST PUSH2 0x98B DUP2 PUSH2 0x7C6 JUMP JUMPDEST DUP3 MSTORE POP POP JUMP JUMPDEST PUSH0 DUP2 ISZERO ISZERO SWAP1 POP SWAP2 SWAP1 POP JUMP JUMPDEST PUSH2 0x9A5 DUP2 PUSH2 0x991 JUMP JUMPDEST DUP3 MSTORE POP POP JUMP JUMPDEST PUSH0 PUSH1 0x60 DUP3 ADD SWAP1 POP PUSH2 0x9BE PUSH0 DUP4 ADD DUP7 PUSH2 0x92F JUMP JUMPDEST PUSH2 0x9CB PUSH1 0x20 DUP4 ADD DUP6 PUSH2 0x982 JUMP JUMPDEST PUSH2 0x9D8 PUSH1 0x40 DUP4 ADD DUP5 PUSH2 0x99C JUMP JUMPDEST SWAP5 SWAP4 POP POP POP POP JUMP JUMPDEST PUSH0 PUSH1 0x20 DUP3 ADD SWAP1 POP PUSH2 0x9F3 PUSH0 DUP4 ADD DUP5 PUSH2 0x982 JUMP JUMPDEST SWAP3 SWAP2 POP POP JUMP JUMPDEST PUSH0 DUP3 DUP3 MSTORE PUSH1 0x20 DUP3 ADD SWAP1 POP SWAP3 SWAP2 POP POP JUMP JUMPDEST PUSH32 0x4E65656420736F6D652045544800000000000000000000000000000000000000 PUSH0 DUP3 ADD MSTORE POP JUMP JUMPDEST PUSH0 PUSH2 0xA3D PUSH1 0xD DUP4 PUSH2 0x9F9 JUMP JUMPDEST SWAP2 POP PUSH2 0xA48 DUP3 PUSH2 0xA09 JUMP JUMPDEST PUSH1 0x20 DUP3 ADD SWAP1 POP SWAP2 SWAP1 POP JUMP JUMPDEST PUSH0 PUSH1 0x20 DUP3 ADD SWAP1 POP DUP2 DUP2 SUB PUSH0 DUP4 ADD MSTORE PUSH2 0xA6A DUP2 PUSH2 0xA31 JUMP JUMPDEST SWAP1 POP SWAP2 SWAP1 POP JUMP JUMPDEST PUSH32 0x44617461206D69736D6174636800000000000000000000000000000000000000 PUSH0 DUP3 ADD MSTORE POP JUMP JUMPDEST PUSH0 PUSH2 0xAA5 PUSH1 0xD DUP4 PUSH2 0x9F9 JUMP JUMPDEST SWAP2 POP PUSH2 0xAB0 DUP3 PUSH2 0xA71 JUMP JUMPDEST PUSH1 0x20 DUP3 ADD SWAP1 POP SWAP2 SWAP1 POP JUMP JUMPDEST PUSH0 PUSH1 0x20 DUP3 ADD SWAP1 POP DUP2 DUP2 SUB PUSH0 DUP4 ADD MSTORE PUSH2 0xAD2 DUP2 PUSH2 0xA99 JUMP JUMPDEST SWAP1 POP SWAP2 SWAP1 POP JUMP JUMPDEST PUSH32 0x4E487B7100000000000000000000000000000000000000000000000000000000 PUSH0 MSTORE PUSH1 0x12 PUSH1 0x4 MSTORE PUSH1 0x24 PUSH0 REVERT JUMPDEST PUSH0 PUSH2 0xB10 DUP3 PUSH2 0x7C6 JUMP JUMPDEST SWAP2 POP PUSH2 0xB1B DUP4 PUSH2 0x7C6 JUMP JUMPDEST SWAP3 POP DUP3 PUSH2 0xB2B JUMPI PUSH2 0xB2A PUSH2 0xAD9 JUMP JUMPDEST JUMPDEST DUP3 DUP3 DIV SWAP1 POP SWAP3 SWAP2 POP POP JUMP JUMPDEST PUSH32 0x4E487B7100000000000000000000000000000000000000000000000000000000 PUSH0 MSTORE PUSH1 0x32 PUSH1 0x4 MSTORE PUSH1 0x24 PUSH0 REVERT JUMPDEST PUSH32 0x596F7520617265206E6F742061206772616E646368696C640000000000000000 PUSH0 DUP3 ADD MSTORE POP JUMP JUMPDEST PUSH0 PUSH2 0xB97 PUSH1 0x18 DUP4 PUSH2 0x9F9 JUMP JUMPDEST SWAP2 POP PUSH2 0xBA2 DUP3 PUSH2 0xB63 JUMP JUMPDEST PUSH1 0x20 DUP3 ADD SWAP1 POP SWAP2 SWAP1 POP JUMP JUMPDEST PUSH0 PUSH1 0x20 DUP3 ADD SWAP1 POP DUP2 DUP2 SUB PUSH0 DUP4 ADD MSTORE PUSH2 0xBC4 DUP2 PUSH2 0xB8B JUMP JUMPDEST SWAP1 POP SWAP2 SWAP1 POP JUMP JUMPDEST PUSH32 0x5761697420666F7220796F757220626972746864617921000000000000000000 PUSH0 DUP3 ADD MSTORE POP JUMP JUMPDEST PUSH0 PUSH2 0xBFF PUSH1 0x17 DUP4 PUSH2 0x9F9 JUMP JUMPDEST SWAP2 POP PUSH2 0xC0A DUP3 PUSH2 0xBCB JUMP JUMPDEST PUSH1 0x20 DUP3 ADD SWAP1 POP SWAP2 SWAP1 POP JUMP JUMPDEST PUSH0 PUSH1 0x20 DUP3 ADD SWAP1 POP DUP2 DUP2 SUB PUSH0 DUP4 ADD MSTORE PUSH2 0xC2C DUP2 PUSH2 0xBF3 JUMP JUMPDEST SWAP1 POP SWAP2 SWAP1 POP JUMP JUMPDEST PUSH32 0x416C72656164792074616B656E00000000000000000000000000000000000000 PUSH0 DUP3 ADD MSTORE POP JUMP JUMPDEST PUSH0 PUSH2 0xC67 PUSH1 0xD DUP4 PUSH2 0x9F9 JUMP JUMPDEST SWAP2 POP PUSH2 0xC72 DUP3 PUSH2 0xC33 JUMP JUMPDEST PUSH1 0x20 DUP3 ADD SWAP1 POP SWAP2 SWAP1 POP JUMP JUMPDEST PUSH0 PUSH1 0x20 DUP3 ADD SWAP1 POP DUP2 DUP2 SUB PUSH0 DUP4 ADD MSTORE PUSH2 0xC94 DUP2 PUSH2 0xC5B JUMP JUMPDEST SWAP1 POP SWAP2 SWAP1 POP JUMP INVALID LOG2 PUSH5 0x6970667358 0x22 SLT KECCAK256 0xAA DUP5 NOT SWAP7 CALL ISZERO PUSH3 0xAAFF53 PUSH0 0xCF RETURNDATACOPY 0x23 0xE9 SGT PUSH21 0x65A5A69CBB34A49BC87CB63FC188DE64736F6C6343 STOP ADDMOD 0x1F STOP CALLER "
				},
				"gasEstimates": {
					"creation": {
						"codeDepositCost": "656200",
						"executionCost": "687",
						"totalCost": "656887"
					},
					"external": {
						"giftAmount()": "2491",
						"grandchildren(address)": "infinite",
						"list(uint256)": "4944",
						"setupGifts(address[],uint256[])": "infinite",
						"withdrawGift()": "infinite"
					}
				},
				"methodIdentifiers": {
					"giftAmount()": "ea3e6718",
					"grandchildren(address)": "940af594",
					"list(uint256)": "80c9419e",
					"setupGifts(address[],uint256[])": "124a07e5",
					"withdrawGift()": "b0ebb261"
				}
			},
			"storageLayout": {
				"storage": [
					{
						"astId": 13,
						"contract": "contracts/babushka.sol:GrandmaGift",
						"label": "grandchildren",
						"offset": 0,
						"slot": "0",
						"type": "t_mapping(t_address,t_struct(Grandchild)8_storage)"
					},
					{
						"astId": 15,
						"contract": "contracts/babushka.sol:GrandmaGift",
						"label": "giftAmount",
						"offset": 0,
						"slot": "1",
						"type": "t_uint256"
					},
					{
						"astId": 18,
						"contract": "contracts/babushka.sol:GrandmaGift",
						"label": "list",
						"offset": 0,
						"slot": "2",
						"type": "t_array(t_address)dyn_storage"
					}
				],
				"types": {
					"t_address": {
						"encoding": "inplace",
						"label": "address",
						"numberOfBytes": "20"
					},
					"t_array(t_address)dyn_storage": {
						"base": "t_address",
						"encoding": "dynamic_array",
						"label": "address[]",
						"numberOfBytes": "32"
					},
					"t_bool": {
						"encoding": "inplace",
						"label": "bool",
						"numberOfBytes": "1"
					},
					"t_mapping(t_address,t_struct(Grandchild)8_storage)": {
						"encoding": "mapping",
						"key": "t_address",
						"label": "mapping(address => struct GrandmaGift.Grandchild)",
						"numberOfBytes": "32",
						"value": "t_struct(Grandchild)8_storage"
					},
					"t_struct(Grandchild)8_storage": {
						"encoding": "inplace",
						"label": "struct GrandmaGift.Grandchild",
						"members": [
							{
								"astId": 3,
								"contract": "contracts/babushka.sol:GrandmaGift",
								"label": "wallet",
								"offset": 0,
								"slot": "0",
								"type": "t_address"
							},
							{
								"astId": 5,
								"contract": "contracts/babushka.sol:GrandmaGift",
								"label": "birthday",
								"offset": 0,
								"slot": "1",
								"type": "t_uint256"
							},
							{
								"astId": 7,
								"contract": "contracts/babushka.sol:GrandmaGift",
								"label": "withdrawn",
								"offset": 0,
								"slot": "2",
								"type": "t_bool"
							}
						],
						"numberOfBytes": "96"
					},
					"t_uint256": {
						"encoding": "inplace",
						"label": "uint256",
						"numberOfBytes": "32"
					}
				}
			},
			"userdoc": {
				"kind": "user",
				"methods": {},
				"version": 1
			}
		}
	}
}