{
	"contracts/warrior.sol": {
		"Knight": {
			"abi": [
				{
					"inputs": [],
					"name": "attack",
					"outputs": [
						{
							"internalType": "string",
							"name": "",
							"type": "string"
						},
						{
							"internalType": "uint256",
							"name": "",
							"type": "uint256"
						}
					],
					"stateMutability": "pure",
					"type": "function"
				},
				{
					"inputs": [],
					"name": "register",
					"outputs": [],
					"stateMutability": "nonpayable",
					"type": "function"
				},
				{
					"inputs": [
						{
							"internalType": "address",
							"name": "",
							"type": "address"
						}
					],
					"name": "warriors",
					"outputs": [
						{
							"internalType": "string",
							"name": "className",
							"type": "string"
						},
						{
							"internalType": "uint256",
							"name": "strength",
							"type": "uint256"
						},
						{
							"internalType": "uint256",
							"name": "agility",
							"type": "uint256"
						},
						{
							"internalType": "uint256",
							"name": "magic",
							"type": "uint256"
						}
					],
					"stateMutability": "view",
					"type": "function"
				}
			],
			"devdoc": {
				"kind": "dev",
				"methods": {},
				"version": 1
			},
			"evm": {
				"assembly": "    /* \"contracts/warrior.sol\":519:790  contract Knight is WarriorGuild {... */\n  mstore(0x40, 0x80)\n  callvalue\n  dup1\n  iszero\n  tag_1\n  jumpi\n  revert(0x00, 0x00)\ntag_1:\n  pop\n  dataSize(sub_0)\n  dup1\n  dataOffset(sub_0)\n  0x00\n  codecopy\n  0x00\n  return\nstop\n\nsub_0: assembly {\n        /* \"contracts/warrior.sol\":519:790  contract Knight is WarriorGuild {... */\n      mstore(0x40, 0x80)\n      callvalue\n      dup1\n      iszero\n      tag_1\n      jumpi\n      revert(0x00, 0x00)\n    tag_1:\n      pop\n      jumpi(tag_2, lt(calldatasize, 0x04))\n      shr(0xe0, calldataload(0x00))\n      dup1\n      0x1aa3a008\n      eq\n      tag_3\n      jumpi\n      dup1\n      0x3d40327c\n      eq\n      tag_4\n      jumpi\n      dup1\n      0x9e5faafc\n      eq\n      tag_5\n      jumpi\n    tag_2:\n      revert(0x00, 0x00)\n        /* \"contracts/warrior.sol\":558:661  function register() public override {... */\n    tag_3:\n      tag_6\n      tag_7\n      jump\t// in\n    tag_6:\n      stop\n        /* \"contracts/warrior.sol\":222:263  mapping(address => Stats) public warriors */\n    tag_4:\n      tag_8\n      0x04\n      dup1\n      calldatasize\n      sub\n      dup2\n      add\n      swap1\n      tag_9\n      swap2\n      swap1\n      tag_10\n      jump\t// in\n    tag_9:\n      tag_11\n      jump\t// in\n    tag_8:\n      mload(0x40)\n      tag_12\n      swap5\n      swap4\n      swap3\n      swap2\n      swap1\n      tag_13\n      jump\t// in\n    tag_12:\n      mload(0x40)\n      dup1\n      swap2\n      sub\n      swap1\n      return\n        /* \"contracts/warrior.sol\":669:787  function attack() public override pure returns (string memory, uint256) {... */\n    tag_5:\n      tag_14\n      tag_15\n      jump\t// in\n    tag_14:\n      mload(0x40)\n      tag_16\n      swap3\n      swap2\n      swap1\n      tag_17\n      jump\t// in\n    tag_16:\n      mload(0x40)\n      dup1\n      swap2\n      sub\n      swap1\n      return\n        /* \"contracts/warrior.sol\":558:661  function register() public override {... */\n    tag_7:\n        /* \"contracts/warrior.sol\":628:653  Stats(\"Knight\", 20, 5, 2) */\n      mload(0x40)\n      dup1\n      0x80\n      add\n      0x40\n      mstore\n      dup1\n      mload(0x40)\n      dup1\n      0x40\n      add\n      0x40\n      mstore\n      dup1\n      0x06\n      dup2\n      mstore\n      0x20\n      add\n      0x4b6e696768740000000000000000000000000000000000000000000000000000\n      dup2\n      mstore\n      pop\n      dup2\n      mstore\n      0x20\n      add\n        /* \"contracts/warrior.sol\":644:646  20 */\n      0x14\n        /* \"contracts/warrior.sol\":628:653  Stats(\"Knight\", 20, 5, 2) */\n      dup2\n      mstore\n      0x20\n      add\n        /* \"contracts/warrior.sol\":648:649  5 */\n      0x05\n        /* \"contracts/warrior.sol\":628:653  Stats(\"Knight\", 20, 5, 2) */\n      dup2\n      mstore\n      0x20\n      add\n        /* \"contracts/warrior.sol\":651:652  2 */\n      0x02\n        /* \"contracts/warrior.sol\":628:653  Stats(\"Knight\", 20, 5, 2) */\n      dup2\n      mstore\n      pop\n        /* \"contracts/warrior.sol\":605:613  warriors */\n      0x00\n        /* \"contracts/warrior.sol\":605:625  warriors[msg.sender] */\n      0x00\n        /* \"contracts/warrior.sol\":614:624  msg.sender */\n      caller\n        /* \"contracts/warrior.sol\":605:625  warriors[msg.sender] */\n      0xffffffffffffffffffffffffffffffffffffffff\n      and\n      0xffffffffffffffffffffffffffffffffffffffff\n      and\n      dup2\n      mstore\n      0x20\n      add\n      swap1\n      dup2\n      mstore\n      0x20\n      add\n      0x00\n      keccak256\n        /* \"contracts/warrior.sol\":605:653  warriors[msg.sender] = Stats(\"Knight\", 20, 5, 2) */\n      0x00\n      dup3\n      add\n      mload\n      dup2\n      0x00\n      add\n      swap1\n      dup2\n      tag_19\n      swap2\n      swap1\n      tag_20\n      jump\t// in\n    tag_19:\n      pop\n      0x20\n      dup3\n      add\n      mload\n      dup2\n      0x01\n      add\n      sstore\n      0x40\n      dup3\n      add\n      mload\n      dup2\n      0x02\n      add\n      sstore\n      0x60\n      dup3\n      add\n      mload\n      dup2\n      0x03\n      add\n      sstore\n      swap1\n      pop\n      pop\n        /* \"contracts/warrior.sol\":558:661  function register() public override {... */\n      jump\t// out\n        /* \"contracts/warrior.sol\":222:263  mapping(address => Stats) public warriors */\n    tag_11:\n      mstore(0x20, 0x00)\n      dup1\n      0x00\n      mstore\n      keccak256(0x00, 0x40)\n      0x00\n      swap2\n      pop\n      swap1\n      pop\n      dup1\n      0x00\n      add\n      dup1\n      sload\n      tag_21\n      swap1\n      tag_22\n      jump\t// in\n    tag_21:\n      dup1\n      0x1f\n      add\n      0x20\n      dup1\n      swap2\n      div\n      mul\n      0x20\n      add\n      mload(0x40)\n      swap1\n      dup2\n      add\n      0x40\n      mstore\n      dup1\n      swap3\n      swap2\n      swap1\n      dup2\n      dup2\n      mstore\n      0x20\n      add\n      dup3\n      dup1\n      sload\n      tag_23\n      swap1\n      tag_22\n      jump\t// in\n    tag_23:\n      dup1\n      iszero\n      tag_24\n      jumpi\n      dup1\n      0x1f\n      lt\n      tag_25\n      jumpi\n      0x0100\n      dup1\n      dup4\n      sload\n      div\n      mul\n      dup4\n      mstore\n      swap2\n      0x20\n      add\n      swap2\n      jump(tag_24)\n    tag_25:\n      dup3\n      add\n      swap2\n      swap1\n      0x00\n      mstore\n      keccak256(0x00, 0x20)\n      swap1\n    tag_26:\n      dup2\n      sload\n      dup2\n      mstore\n      swap1\n      0x01\n      add\n      swap1\n      0x20\n      add\n      dup1\n      dup4\n      gt\n      tag_26\n      jumpi\n      dup3\n      swap1\n      sub\n      0x1f\n      and\n      dup3\n      add\n      swap2\n    tag_24:\n      pop\n      pop\n      pop\n      pop\n      pop\n      swap1\n      dup1\n      0x01\n      add\n      sload\n      swap1\n      dup1\n      0x02\n      add\n      sload\n      swap1\n      dup1\n      0x03\n      add\n      sload\n      swap1\n      pop\n      dup5\n      jump\t// out\n        /* \"contracts/warrior.sol\":669:787  function attack() public override pure returns (string memory, uint256) {... */\n    tag_15:\n        /* \"contracts/warrior.sol\":717:730  string memory */\n      0x60\n        /* \"contracts/warrior.sol\":732:739  uint256 */\n      0x00\n        /* \"contracts/warrior.sol\":775:777  25 */\n      0x19\n        /* \"contracts/warrior.sol\":752:778  return (\"Shield Bash\", 25) */\n      mload(0x40)\n      dup1\n      0x40\n      add\n      0x40\n      mstore\n      dup1\n      0x0b\n      dup2\n      mstore\n      0x20\n      add\n      0x536869656c642042617368000000000000000000000000000000000000000000\n      dup2\n      mstore\n      pop\n      swap1\n      swap2\n      pop\n      swap2\n      pop\n        /* \"contracts/warrior.sol\":669:787  function attack() public override pure returns (string memory, uint256) {... */\n      swap1\n      swap2\n      jump\t// out\n        /* \"#utility.yul\":88:205   */\n    tag_29:\n        /* \"#utility.yul\":197:198   */\n      0x00\n        /* \"#utility.yul\":194:195   */\n      0x00\n        /* \"#utility.yul\":187:199   */\n      revert\n        /* \"#utility.yul\":334:460   */\n    tag_31:\n        /* \"#utility.yul\":371:378   */\n      0x00\n        /* \"#utility.yul\":411:453   */\n      0xffffffffffffffffffffffffffffffffffffffff\n        /* \"#utility.yul\":404:409   */\n      dup3\n        /* \"#utility.yul\":400:454   */\n      and\n        /* \"#utility.yul\":389:454   */\n      swap1\n      pop\n        /* \"#utility.yul\":334:460   */\n      swap2\n      swap1\n      pop\n      jump\t// out\n        /* \"#utility.yul\":466:562   */\n    tag_32:\n        /* \"#utility.yul\":503:510   */\n      0x00\n        /* \"#utility.yul\":532:556   */\n      tag_65\n        /* \"#utility.yul\":550:555   */\n      dup3\n        /* \"#utility.yul\":532:556   */\n      tag_31\n      jump\t// in\n    tag_65:\n        /* \"#utility.yul\":521:556   */\n      swap1\n      pop\n        /* \"#utility.yul\":466:562   */\n      swap2\n      swap1\n      pop\n      jump\t// out\n        /* \"#utility.yul\":568:690   */\n    tag_33:\n        /* \"#utility.yul\":641:665   */\n      tag_67\n        /* \"#utility.yul\":659:664   */\n      dup2\n        /* \"#utility.yul\":641:665   */\n      tag_32\n      jump\t// in\n    tag_67:\n        /* \"#utility.yul\":634:639   */\n      dup2\n        /* \"#utility.yul\":631:666   */\n      eq\n        /* \"#utility.yul\":621:684   */\n      tag_68\n      jumpi\n        /* \"#utility.yul\":680:681   */\n      0x00\n        /* \"#utility.yul\":677:678   */\n      0x00\n        /* \"#utility.yul\":670:682   */\n      revert\n        /* \"#utility.yul\":621:684   */\n    tag_68:\n        /* \"#utility.yul\":568:690   */\n      pop\n      jump\t// out\n        /* \"#utility.yul\":696:835   */\n    tag_34:\n        /* \"#utility.yul\":742:747   */\n      0x00\n        /* \"#utility.yul\":780:786   */\n      dup2\n        /* \"#utility.yul\":767:787   */\n      calldataload\n        /* \"#utility.yul\":758:787   */\n      swap1\n      pop\n        /* \"#utility.yul\":796:829   */\n      tag_70\n        /* \"#utility.yul\":823:828   */\n      dup2\n        /* \"#utility.yul\":796:829   */\n      tag_33\n      jump\t// in\n    tag_70:\n        /* \"#utility.yul\":696:835   */\n      swap3\n      swap2\n      pop\n      pop\n      jump\t// out\n        /* \"#utility.yul\":841:1170   */\n    tag_10:\n        /* \"#utility.yul\":900:906   */\n      0x00\n        /* \"#utility.yul\":949:951   */\n      0x20\n        /* \"#utility.yul\":937:946   */\n      dup3\n        /* \"#utility.yul\":928:935   */\n      dup5\n        /* \"#utility.yul\":924:947   */\n      sub\n        /* \"#utility.yul\":920:952   */\n      slt\n        /* \"#utility.yul\":917:1036   */\n      iszero\n      tag_72\n      jumpi\n        /* \"#utility.yul\":955:1034   */\n      tag_73\n      tag_29\n      jump\t// in\n    tag_73:\n        /* \"#utility.yul\":917:1036   */\n    tag_72:\n        /* \"#utility.yul\":1075:1076   */\n      0x00\n        /* \"#utility.yul\":1100:1153   */\n      tag_74\n        /* \"#utility.yul\":1145:1152   */\n      dup5\n        /* \"#utility.yul\":1136:1142   */\n      dup3\n        /* \"#utility.yul\":1125:1134   */\n      dup6\n        /* \"#utility.yul\":1121:1143   */\n      add\n        /* \"#utility.yul\":1100:1153   */\n      tag_34\n      jump\t// in\n    tag_74:\n        /* \"#utility.yul\":1090:1153   */\n      swap2\n      pop\n        /* \"#utility.yul\":1046:1163   */\n      pop\n        /* \"#utility.yul\":841:1170   */\n      swap3\n      swap2\n      pop\n      pop\n      jump\t// out\n        /* \"#utility.yul\":1176:1275   */\n    tag_35:\n        /* \"#utility.yul\":1228:1234   */\n      0x00\n        /* \"#utility.yul\":1262:1267   */\n      dup2\n        /* \"#utility.yul\":1256:1268   */\n      mload\n        /* \"#utility.yul\":1246:1268   */\n      swap1\n      pop\n        /* \"#utility.yul\":1176:1275   */\n      swap2\n      swap1\n      pop\n      jump\t// out\n        /* \"#utility.yul\":1281:1450   */\n    tag_36:\n        /* \"#utility.yul\":1365:1376   */\n      0x00\n        /* \"#utility.yul\":1399:1405   */\n      dup3\n        /* \"#utility.yul\":1394:1397   */\n      dup3\n        /* \"#utility.yul\":1387:1406   */\n      mstore\n        /* \"#utility.yul\":1439:1443   */\n      0x20\n        /* \"#utility.yul\":1434:1437   */\n      dup3\n        /* \"#utility.yul\":1430:1444   */\n      add\n        /* \"#utility.yul\":1415:1444   */\n      swap1\n      pop\n        /* \"#utility.yul\":1281:1450   */\n      swap3\n      swap2\n      pop\n      pop\n      jump\t// out\n        /* \"#utility.yul\":1456:1595   */\n    tag_37:\n        /* \"#utility.yul\":1545:1551   */\n      dup3\n        /* \"#utility.yul\":1540:1543   */\n      dup2\n        /* \"#utility.yul\":1535:1538   */\n      dup4\n        /* \"#utility.yul\":1529:1552   */\n      mcopy\n        /* \"#utility.yul\":1586:1587   */\n      0x00\n        /* \"#utility.yul\":1577:1583   */\n      dup4\n        /* \"#utility.yul\":1572:1575   */\n      dup4\n        /* \"#utility.yul\":1568:1584   */\n      add\n        /* \"#utility.yul\":1561:1588   */\n      mstore\n        /* \"#utility.yul\":1456:1595   */\n      pop\n      pop\n      pop\n      jump\t// out\n        /* \"#utility.yul\":1601:1703   */\n    tag_38:\n        /* \"#utility.yul\":1642:1648   */\n      0x00\n        /* \"#utility.yul\":1693:1695   */\n      0x1f\n        /* \"#utility.yul\":1689:1696   */\n      not\n        /* \"#utility.yul\":1684:1686   */\n      0x1f\n        /* \"#utility.yul\":1677:1682   */\n      dup4\n        /* \"#utility.yul\":1673:1687   */\n      add\n        /* \"#utility.yul\":1669:1697   */\n      and\n        /* \"#utility.yul\":1659:1697   */\n      swap1\n      pop\n        /* \"#utility.yul\":1601:1703   */\n      swap2\n      swap1\n      pop\n      jump\t// out\n        /* \"#utility.yul\":1709:2086   */\n    tag_39:\n        /* \"#utility.yul\":1797:1800   */\n      0x00\n        /* \"#utility.yul\":1825:1864   */\n      tag_80\n        /* \"#utility.yul\":1858:1863   */\n      dup3\n        /* \"#utility.yul\":1825:1864   */\n      tag_35\n      jump\t// in\n    tag_80:\n        /* \"#utility.yul\":1880:1951   */\n      tag_81\n        /* \"#utility.yul\":1944:1950   */\n      dup2\n        /* \"#utility.yul\":1939:1942   */\n      dup6\n        /* \"#utility.yul\":1880:1951   */\n      tag_36\n      jump\t// in\n    tag_81:\n        /* \"#utility.yul\":1873:1951   */\n      swap4\n      pop\n        /* \"#utility.yul\":1960:2025   */\n      tag_82\n        /* \"#utility.yul\":2018:2024   */\n      dup2\n        /* \"#utility.yul\":2013:2016   */\n      dup6\n        /* \"#utility.yul\":2006:2010   */\n      0x20\n        /* \"#utility.yul\":1999:2004   */\n      dup7\n        /* \"#utility.yul\":1995:2011   */\n      add\n        /* \"#utility.yul\":1960:2025   */\n      tag_37\n      jump\t// in\n    tag_82:\n        /* \"#utility.yul\":2050:2079   */\n      tag_83\n        /* \"#utility.yul\":2072:2078   */\n      dup2\n        /* \"#utility.yul\":2050:2079   */\n      tag_38\n      jump\t// in\n    tag_83:\n        /* \"#utility.yul\":2045:2048   */\n      dup5\n        /* \"#utility.yul\":2041:2080   */\n      add\n        /* \"#utility.yul\":2034:2080   */\n      swap2\n      pop\n        /* \"#utility.yul\":1801:2086   */\n      pop\n        /* \"#utility.yul\":1709:2086   */\n      swap3\n      swap2\n      pop\n      pop\n      jump\t// out\n        /* \"#utility.yul\":2092:2169   */\n    tag_40:\n        /* \"#utility.yul\":2129:2136   */\n      0x00\n        /* \"#utility.yul\":2158:2163   */\n      dup2\n        /* \"#utility.yul\":2147:2163   */\n      swap1\n      pop\n        /* \"#utility.yul\":2092:2169   */\n      swap2\n      swap1\n      pop\n      jump\t// out\n        /* \"#utility.yul\":2175:2293   */\n    tag_41:\n        /* \"#utility.yul\":2262:2286   */\n      tag_86\n        /* \"#utility.yul\":2280:2285   */\n      dup2\n        /* \"#utility.yul\":2262:2286   */\n      tag_40\n      jump\t// in\n    tag_86:\n        /* \"#utility.yul\":2257:2260   */\n      dup3\n        /* \"#utility.yul\":2250:2287   */\n      mstore\n        /* \"#utility.yul\":2175:2293   */\n      pop\n      pop\n      jump\t// out\n        /* \"#utility.yul\":2299:2943   */\n    tag_13:\n        /* \"#utility.yul\":2496:2500   */\n      0x00\n        /* \"#utility.yul\":2534:2537   */\n      0x80\n        /* \"#utility.yul\":2523:2532   */\n      dup3\n        /* \"#utility.yul\":2519:2538   */\n      add\n        /* \"#utility.yul\":2511:2538   */\n      swap1\n      pop\n        /* \"#utility.yul\":2584:2593   */\n      dup2\n        /* \"#utility.yul\":2578:2582   */\n      dup2\n        /* \"#utility.yul\":2574:2594   */\n      sub\n        /* \"#utility.yul\":2570:2571   */\n      0x00\n        /* \"#utility.yul\":2559:2568   */\n      dup4\n        /* \"#utility.yul\":2555:2572   */\n      add\n        /* \"#utility.yul\":2548:2595   */\n      mstore\n        /* \"#utility.yul\":2612:2690   */\n      tag_88\n        /* \"#utility.yul\":2685:2689   */\n      dup2\n        /* \"#utility.yul\":2676:2682   */\n      dup8\n        /* \"#utility.yul\":2612:2690   */\n      tag_39\n      jump\t// in\n    tag_88:\n        /* \"#utility.yul\":2604:2690   */\n      swap1\n      pop\n        /* \"#utility.yul\":2700:2772   */\n      tag_89\n        /* \"#utility.yul\":2768:2770   */\n      0x20\n        /* \"#utility.yul\":2757:2766   */\n      dup4\n        /* \"#utility.yul\":2753:2771   */\n      add\n        /* \"#utility.yul\":2744:2750   */\n      dup7\n        /* \"#utility.yul\":2700:2772   */\n      tag_41\n      jump\t// in\n    tag_89:\n        /* \"#utility.yul\":2782:2854   */\n      tag_90\n        /* \"#utility.yul\":2850:2852   */\n      0x40\n        /* \"#utility.yul\":2839:2848   */\n      dup4\n        /* \"#utility.yul\":2835:2853   */\n      add\n        /* \"#utility.yul\":2826:2832   */\n      dup6\n        /* \"#utility.yul\":2782:2854   */\n      tag_41\n      jump\t// in\n    tag_90:\n        /* \"#utility.yul\":2864:2936   */\n      tag_91\n        /* \"#utility.yul\":2932:2934   */\n      0x60\n        /* \"#utility.yul\":2921:2930   */\n      dup4\n        /* \"#utility.yul\":2917:2935   */\n      add\n        /* \"#utility.yul\":2908:2914   */\n      dup5\n        /* \"#utility.yul\":2864:2936   */\n      tag_41\n      jump\t// in\n    tag_91:\n        /* \"#utility.yul\":2299:2943   */\n      swap6\n      swap5\n      pop\n      pop\n      pop\n      pop\n      pop\n      jump\t// out\n        /* \"#utility.yul\":2949:3372   */\n    tag_17:\n        /* \"#utility.yul\":3090:3094   */\n      0x00\n        /* \"#utility.yul\":3128:3130   */\n      0x40\n        /* \"#utility.yul\":3117:3126   */\n      dup3\n        /* \"#utility.yul\":3113:3131   */\n      add\n        /* \"#utility.yul\":3105:3131   */\n      swap1\n      pop\n        /* \"#utility.yul\":3177:3186   */\n      dup2\n        /* \"#utility.yul\":3171:3175   */\n      dup2\n        /* \"#utility.yul\":3167:3187   */\n      sub\n        /* \"#utility.yul\":3163:3164   */\n      0x00\n        /* \"#utility.yul\":3152:3161   */\n      dup4\n        /* \"#utility.yul\":3148:3165   */\n      add\n        /* \"#utility.yul\":3141:3188   */\n      mstore\n        /* \"#utility.yul\":3205:3283   */\n      tag_93\n        /* \"#utility.yul\":3278:3282   */\n      dup2\n        /* \"#utility.yul\":3269:3275   */\n      dup6\n        /* \"#utility.yul\":3205:3283   */\n      tag_39\n      jump\t// in\n    tag_93:\n        /* \"#utility.yul\":3197:3283   */\n      swap1\n      pop\n        /* \"#utility.yul\":3293:3365   */\n      tag_94\n        /* \"#utility.yul\":3361:3363   */\n      0x20\n        /* \"#utility.yul\":3350:3359   */\n      dup4\n        /* \"#utility.yul\":3346:3364   */\n      add\n        /* \"#utility.yul\":3337:3343   */\n      dup5\n        /* \"#utility.yul\":3293:3365   */\n      tag_41\n      jump\t// in\n    tag_94:\n        /* \"#utility.yul\":2949:3372   */\n      swap4\n      swap3\n      pop\n      pop\n      pop\n      jump\t// out\n        /* \"#utility.yul\":3378:3558   */\n    tag_42:\n        /* \"#utility.yul\":3426:3503   */\n      0x4e487b7100000000000000000000000000000000000000000000000000000000\n        /* \"#utility.yul\":3423:3424   */\n      0x00\n        /* \"#utility.yul\":3416:3504   */\n      mstore\n        /* \"#utility.yul\":3523:3527   */\n      0x41\n        /* \"#utility.yul\":3520:3521   */\n      0x04\n        /* \"#utility.yul\":3513:3528   */\n      mstore\n        /* \"#utility.yul\":3547:3551   */\n      0x24\n        /* \"#utility.yul\":3544:3545   */\n      0x00\n        /* \"#utility.yul\":3537:3552   */\n      revert\n        /* \"#utility.yul\":3564:3744   */\n    tag_43:\n        /* \"#utility.yul\":3612:3689   */\n      0x4e487b7100000000000000000000000000000000000000000000000000000000\n        /* \"#utility.yul\":3609:3610   */\n      0x00\n        /* \"#utility.yul\":3602:3690   */\n      mstore\n        /* \"#utility.yul\":3709:3713   */\n      0x22\n        /* \"#utility.yul\":3706:3707   */\n      0x04\n        /* \"#utility.yul\":3699:3714   */\n      mstore\n        /* \"#utility.yul\":3733:3737   */\n      0x24\n        /* \"#utility.yul\":3730:3731   */\n      0x00\n        /* \"#utility.yul\":3723:3738   */\n      revert\n        /* \"#utility.yul\":3750:4070   */\n    tag_22:\n        /* \"#utility.yul\":3794:3800   */\n      0x00\n        /* \"#utility.yul\":3831:3832   */\n      0x02\n        /* \"#utility.yul\":3825:3829   */\n      dup3\n        /* \"#utility.yul\":3821:3833   */\n      div\n        /* \"#utility.yul\":3811:3833   */\n      swap1\n      pop\n        /* \"#utility.yul\":3878:3879   */\n      0x01\n        /* \"#utility.yul\":3872:3876   */\n      dup3\n        /* \"#utility.yul\":3868:3880   */\n      and\n        /* \"#utility.yul\":3899:3917   */\n      dup1\n        /* \"#utility.yul\":3889:3970   */\n      tag_98\n      jumpi\n        /* \"#utility.yul\":3955:3959   */\n      0x7f\n        /* \"#utility.yul\":3947:3953   */\n      dup3\n        /* \"#utility.yul\":3943:3960   */\n      and\n        /* \"#utility.yul\":3933:3960   */\n      swap2\n      pop\n        /* \"#utility.yul\":3889:3970   */\n    tag_98:\n        /* \"#utility.yul\":4017:4019   */\n      0x20\n        /* \"#utility.yul\":4009:4015   */\n      dup3\n        /* \"#utility.yul\":4006:4020   */\n      lt\n        /* \"#utility.yul\":3986:4004   */\n      dup2\n        /* \"#utility.yul\":3983:4021   */\n      sub\n        /* \"#utility.yul\":3980:4064   */\n      tag_99\n      jumpi\n        /* \"#utility.yul\":4036:4054   */\n      tag_100\n      tag_43\n      jump\t// in\n    tag_100:\n        /* \"#utility.yul\":3980:4064   */\n    tag_99:\n        /* \"#utility.yul\":3801:4070   */\n      pop\n        /* \"#utility.yul\":3750:4070   */\n      swap2\n      swap1\n      pop\n      jump\t// out\n        /* \"#utility.yul\":4076:4217   */\n    tag_44:\n        /* \"#utility.yul\":4125:4129   */\n      0x00\n        /* \"#utility.yul\":4148:4151   */\n      dup2\n        /* \"#utility.yul\":4140:4151   */\n      swap1\n      pop\n        /* \"#utility.yul\":4171:4174   */\n      dup2\n        /* \"#utility.yul\":4168:4169   */\n      0x00\n        /* \"#utility.yul\":4161:4175   */\n      mstore\n        /* \"#utility.yul\":4205:4209   */\n      0x20\n        /* \"#utility.yul\":4202:4203   */\n      0x00\n        /* \"#utility.yul\":4192:4210   */\n      keccak256\n        /* \"#utility.yul\":4184:4210   */\n      swap1\n      pop\n        /* \"#utility.yul\":4076:4217   */\n      swap2\n      swap1\n      pop\n      jump\t// out\n        /* \"#utility.yul\":4223:4316   */\n    tag_45:\n        /* \"#utility.yul\":4260:4266   */\n      0x00\n        /* \"#utility.yul\":4307:4309   */\n      0x20\n        /* \"#utility.yul\":4302:4304   */\n      0x1f\n        /* \"#utility.yul\":4295:4300   */\n      dup4\n        /* \"#utility.yul\":4291:4305   */\n      add\n        /* \"#utility.yul\":4287:4310   */\n      div\n        /* \"#utility.yul\":4277:4310   */\n      swap1\n      pop\n        /* \"#utility.yul\":4223:4316   */\n      swap2\n      swap1\n      pop\n      jump\t// out\n        /* \"#utility.yul\":4322:4429   */\n    tag_46:\n        /* \"#utility.yul\":4366:4374   */\n      0x00\n        /* \"#utility.yul\":4416:4421   */\n      dup3\n        /* \"#utility.yul\":4410:4414   */\n      dup3\n        /* \"#utility.yul\":4406:4422   */\n      shl\n        /* \"#utility.yul\":4385:4422   */\n      swap1\n      pop\n        /* \"#utility.yul\":4322:4429   */\n      swap3\n      swap2\n      pop\n      pop\n      jump\t// out\n        /* \"#utility.yul\":4435:4828   */\n    tag_47:\n        /* \"#utility.yul\":4504:4510   */\n      0x00\n        /* \"#utility.yul\":4554:4555   */\n      0x08\n        /* \"#utility.yul\":4542:4552   */\n      dup4\n        /* \"#utility.yul\":4538:4556   */\n      mul\n        /* \"#utility.yul\":4577:4674   */\n      tag_105\n        /* \"#utility.yul\":4607:4673   */\n      0xffffffffffffffffffffffffffffffffffffffffffffffffffffffffffffffff\n        /* \"#utility.yul\":4596:4605   */\n      dup3\n        /* \"#utility.yul\":4577:4674   */\n      tag_46\n      jump\t// in\n    tag_105:\n        /* \"#utility.yul\":4695:4734   */\n      tag_106\n        /* \"#utility.yul\":4725:4733   */\n      dup7\n        /* \"#utility.yul\":4714:4723   */\n      dup4\n        /* \"#utility.yul\":4695:4734   */\n      tag_46\n      jump\t// in\n    tag_106:\n        /* \"#utility.yul\":4683:4734   */\n      swap6\n      pop\n        /* \"#utility.yul\":4767:4771   */\n      dup1\n        /* \"#utility.yul\":4763:4772   */\n      not\n        /* \"#utility.yul\":4756:4761   */\n      dup5\n        /* \"#utility.yul\":4752:4773   */\n      and\n        /* \"#utility.yul\":4743:4773   */\n      swap4\n      pop\n        /* \"#utility.yul\":4816:4820   */\n      dup1\n        /* \"#utility.yul\":4806:4814   */\n      dup7\n        /* \"#utility.yul\":4802:4821   */\n      and\n        /* \"#utility.yul\":4795:4800   */\n      dup5\n        /* \"#utility.yul\":4792:4822   */\n      or\n        /* \"#utility.yul\":4782:4822   */\n      swap3\n      pop\n        /* \"#utility.yul\":4511:4828   */\n      pop\n      pop\n        /* \"#utility.yul\":4435:4828   */\n      swap4\n      swap3\n      pop\n      pop\n      pop\n      jump\t// out\n        /* \"#utility.yul\":4834:4894   */\n    tag_48:\n        /* \"#utility.yul\":4862:4865   */\n      0x00\n        /* \"#utility.yul\":4883:4888   */\n      dup2\n        /* \"#utility.yul\":4876:4888   */\n      swap1\n      pop\n        /* \"#utility.yul\":4834:4894   */\n      swap2\n      swap1\n      pop\n      jump\t// out\n        /* \"#utility.yul\":4900:5042   */\n    tag_49:\n        /* \"#utility.yul\":4950:4959   */\n      0x00\n        /* \"#utility.yul\":4983:5036   */\n      tag_109\n        /* \"#utility.yul\":5001:5035   */\n      tag_110\n        /* \"#utility.yul\":5010:5034   */\n      tag_111\n        /* \"#utility.yul\":5028:5033   */\n      dup5\n        /* \"#utility.yul\":5010:5034   */\n      tag_40\n      jump\t// in\n    tag_111:\n        /* \"#utility.yul\":5001:5035   */\n      tag_48\n      jump\t// in\n    tag_110:\n        /* \"#utility.yul\":4983:5036   */\n      tag_40\n      jump\t// in\n    tag_109:\n        /* \"#utility.yul\":4970:5036   */\n      swap1\n      pop\n        /* \"#utility.yul\":4900:5042   */\n      swap2\n      swap1\n      pop\n      jump\t// out\n        /* \"#utility.yul\":5048:5123   */\n    tag_50:\n        /* \"#utility.yul\":5091:5094   */\n      0x00\n        /* \"#utility.yul\":5112:5117   */\n      dup2\n        /* \"#utility.yul\":5105:5117   */\n      swap1\n      pop\n        /* \"#utility.yul\":5048:5123   */\n      swap2\n      swap1\n      pop\n      jump\t// out\n        /* \"#utility.yul\":5129:5398   */\n    tag_51:\n        /* \"#utility.yul\":5239:5278   */\n      tag_114\n        /* \"#utility.yul\":5270:5277   */\n      dup4\n        /* \"#utility.yul\":5239:5278   */\n      tag_49\n      jump\t// in\n    tag_114:\n        /* \"#utility.yul\":5300:5391   */\n      tag_115\n        /* \"#utility.yul\":5349:5390   */\n      tag_116\n        /* \"#utility.yul\":5373:5389   */\n      dup3\n        /* \"#utility.yul\":5349:5390   */\n      tag_50\n      jump\t// in\n    tag_116:\n        /* \"#utility.yul\":5341:5347   */\n      dup5\n        /* \"#utility.yul\":5334:5338   */\n      dup5\n        /* \"#utility.yul\":5328:5339   */\n      sload\n        /* \"#utility.yul\":5300:5391   */\n      tag_47\n      jump\t// in\n    tag_115:\n        /* \"#utility.yul\":5294:5298   */\n      dup3\n        /* \"#utility.yul\":5287:5392   */\n      sstore\n        /* \"#utility.yul\":5205:5398   */\n      pop\n        /* \"#utility.yul\":5129:5398   */\n      pop\n      pop\n      pop\n      jump\t// out\n        /* \"#utility.yul\":5404:5477   */\n    tag_52:\n        /* \"#utility.yul\":5449:5452   */\n      0x00\n        /* \"#utility.yul\":5470:5471   */\n      0x00\n        /* \"#utility.yul\":5463:5471   */\n      swap1\n      pop\n        /* \"#utility.yul\":5404:5477   */\n      swap1\n      jump\t// out\n        /* \"#utility.yul\":5483:5672   */\n    tag_53:\n        /* \"#utility.yul\":5560:5592   */\n      tag_119\n      tag_52\n      jump\t// in\n    tag_119:\n        /* \"#utility.yul\":5601:5666   */\n      tag_120\n        /* \"#utility.yul\":5659:5665   */\n      dup2\n        /* \"#utility.yul\":5651:5657   */\n      dup5\n        /* \"#utility.yul\":5645:5649   */\n      dup5\n        /* \"#utility.yul\":5601:5666   */\n      tag_51\n      jump\t// in\n    tag_120:\n        /* \"#utility.yul\":5536:5672   */\n      pop\n        /* \"#utility.yul\":5483:5672   */\n      pop\n      pop\n      jump\t// out\n        /* \"#utility.yul\":5678:5864   */\n    tag_54:\n        /* \"#utility.yul\":5738:5858   */\n    tag_122:\n        /* \"#utility.yul\":5755:5758   */\n      dup2\n        /* \"#utility.yul\":5748:5753   */\n      dup2\n        /* \"#utility.yul\":5745:5759   */\n      lt\n        /* \"#utility.yul\":5738:5858   */\n      iszero\n      tag_124\n      jumpi\n        /* \"#utility.yul\":5809:5848   */\n      tag_125\n        /* \"#utility.yul\":5846:5847   */\n      0x00\n        /* \"#utility.yul\":5839:5844   */\n      dup3\n        /* \"#utility.yul\":5809:5848   */\n      tag_53\n      jump\t// in\n    tag_125:\n        /* \"#utility.yul\":5782:5783   */\n      0x01\n        /* \"#utility.yul\":5775:5780   */\n      dup2\n        /* \"#utility.yul\":5771:5784   */\n      add\n        /* \"#utility.yul\":5762:5784   */\n      swap1\n      pop\n        /* \"#utility.yul\":5738:5858   */\n      jump(tag_122)\n    tag_124:\n        /* \"#utility.yul\":5678:5864   */\n      pop\n      pop\n      jump\t// out\n        /* \"#utility.yul\":5870:6413   */\n    tag_55:\n        /* \"#utility.yul\":5971:5973   */\n      0x1f\n        /* \"#utility.yul\":5966:5969   */\n      dup3\n        /* \"#utility.yul\":5963:5974   */\n      gt\n        /* \"#utility.yul\":5960:6406   */\n      iszero\n      tag_127\n      jumpi\n        /* \"#utility.yul\":6005:6043   */\n      tag_128\n        /* \"#utility.yul\":6037:6042   */\n      dup2\n        /* \"#utility.yul\":6005:6043   */\n      tag_44\n      jump\t// in\n    tag_128:\n        /* \"#utility.yul\":6089:6118   */\n      tag_129\n        /* \"#utility.yul\":6107:6117   */\n      dup5\n        /* \"#utility.yul\":6089:6118   */\n      tag_45\n      jump\t// in\n    tag_129:\n        /* \"#utility.yul\":6079:6087   */\n      dup2\n        /* \"#utility.yul\":6075:6119   */\n      add\n        /* \"#utility.yul\":6272:6274   */\n      0x20\n        /* \"#utility.yul\":6260:6270   */\n      dup6\n        /* \"#utility.yul\":6257:6275   */\n      lt\n        /* \"#utility.yul\":6254:6303   */\n      iszero\n      tag_130\n      jumpi\n        /* \"#utility.yul\":6293:6301   */\n      dup2\n        /* \"#utility.yul\":6278:6301   */\n      swap1\n      pop\n        /* \"#utility.yul\":6254:6303   */\n    tag_130:\n        /* \"#utility.yul\":6316:6396   */\n      tag_131\n        /* \"#utility.yul\":6372:6394   */\n      tag_132\n        /* \"#utility.yul\":6390:6393   */\n      dup6\n        /* \"#utility.yul\":6372:6394   */\n      tag_45\n      jump\t// in\n    tag_132:\n        /* \"#utility.yul\":6362:6370   */\n      dup4\n        /* \"#utility.yul\":6358:6395   */\n      add\n        /* \"#utility.yul\":6345:6356   */\n      dup3\n        /* \"#utility.yul\":6316:6396   */\n      tag_54\n      jump\t// in\n    tag_131:\n        /* \"#utility.yul\":5975:6406   */\n      pop\n      pop\n        /* \"#utility.yul\":5960:6406   */\n    tag_127:\n        /* \"#utility.yul\":5870:6413   */\n      pop\n      pop\n      pop\n      jump\t// out\n        /* \"#utility.yul\":6419:6536   */\n    tag_56:\n        /* \"#utility.yul\":6473:6481   */\n      0x00\n        /* \"#utility.yul\":6523:6528   */\n      dup3\n        /* \"#utility.yul\":6517:6521   */\n      dup3\n        /* \"#utility.yul\":6513:6529   */\n      shr\n        /* \"#utility.yul\":6492:6529   */\n      swap1\n      pop\n        /* \"#utility.yul\":6419:6536   */\n      swap3\n      swap2\n      pop\n      pop\n      jump\t// out\n        /* \"#utility.yul\":6542:6711   */\n    tag_57:\n        /* \"#utility.yul\":6586:6592   */\n      0x00\n        /* \"#utility.yul\":6619:6670   */\n      tag_135\n        /* \"#utility.yul\":6667:6668   */\n      0x00\n        /* \"#utility.yul\":6663:6669   */\n      not\n        /* \"#utility.yul\":6655:6660   */\n      dup5\n        /* \"#utility.yul\":6652:6653   */\n      0x08\n        /* \"#utility.yul\":6648:6661   */\n      mul\n        /* \"#utility.yul\":6619:6670   */\n      tag_56\n      jump\t// in\n    tag_135:\n        /* \"#utility.yul\":6615:6671   */\n      not\n        /* \"#utility.yul\":6700:6704   */\n      dup1\n        /* \"#utility.yul\":6694:6698   */\n      dup4\n        /* \"#utility.yul\":6690:6705   */\n      and\n        /* \"#utility.yul\":6680:6705   */\n      swap2\n      pop\n        /* \"#utility.yul\":6593:6711   */\n      pop\n        /* \"#utility.yul\":6542:6711   */\n      swap3\n      swap2\n      pop\n      pop\n      jump\t// out\n        /* \"#utility.yul\":6716:7011   */\n    tag_58:\n        /* \"#utility.yul\":6792:6796   */\n      0x00\n        /* \"#utility.yul\":6938:6967   */\n      tag_137\n        /* \"#utility.yul\":6963:6966   */\n      dup4\n        /* \"#utility.yul\":6957:6961   */\n      dup4\n        /* \"#utility.yul\":6938:6967   */\n      tag_57\n      jump\t// in\n    tag_137:\n        /* \"#utility.yul\":6930:6967   */\n      swap2\n      pop\n        /* \"#utility.yul\":7000:7003   */\n      dup3\n        /* \"#utility.yul\":6997:6998   */\n      0x02\n        /* \"#utility.yul\":6993:7004   */\n      mul\n        /* \"#utility.yul\":6987:6991   */\n      dup3\n        /* \"#utility.yul\":6984:7005   */\n      or\n        /* \"#utility.yul\":6976:7005   */\n      swap1\n      pop\n        /* \"#utility.yul\":6716:7011   */\n      swap3\n      swap2\n      pop\n      pop\n      jump\t// out\n        /* \"#utility.yul\":7016:8411   */\n    tag_20:\n        /* \"#utility.yul\":7133:7170   */\n      tag_139\n        /* \"#utility.yul\":7166:7169   */\n      dup3\n        /* \"#utility.yul\":7133:7170   */\n      tag_35\n      jump\t// in\n    tag_139:\n        /* \"#utility.yul\":7235:7253   */\n      0xffffffffffffffff\n        /* \"#utility.yul\":7227:7233   */\n      dup2\n        /* \"#utility.yul\":7224:7254   */\n      gt\n        /* \"#utility.yul\":7221:7277   */\n      iszero\n      tag_140\n      jumpi\n        /* \"#utility.yul\":7257:7275   */\n      tag_141\n      tag_42\n      jump\t// in\n    tag_141:\n        /* \"#utility.yul\":7221:7277   */\n    tag_140:\n        /* \"#utility.yul\":7301:7339   */\n      tag_142\n        /* \"#utility.yul\":7333:7337   */\n      dup3\n        /* \"#utility.yul\":7327:7338   */\n      sload\n        /* \"#utility.yul\":7301:7339   */\n      tag_22\n      jump\t// in\n    tag_142:\n        /* \"#utility.yul\":7386:7453   */\n      tag_143\n        /* \"#utility.yul\":7446:7452   */\n      dup3\n        /* \"#utility.yul\":7438:7444   */\n      dup3\n        /* \"#utility.yul\":7432:7436   */\n      dup6\n        /* \"#utility.yul\":7386:7453   */\n      tag_55\n      jump\t// in\n    tag_143:\n        /* \"#utility.yul\":7480:7481   */\n      0x00\n        /* \"#utility.yul\":7504:7508   */\n      0x20\n        /* \"#utility.yul\":7491:7508   */\n      swap1\n      pop\n        /* \"#utility.yul\":7536:7538   */\n      0x1f\n        /* \"#utility.yul\":7528:7534   */\n      dup4\n        /* \"#utility.yul\":7525:7539   */\n      gt\n        /* \"#utility.yul\":7553:7554   */\n      0x01\n        /* \"#utility.yul\":7548:8166   */\n      dup2\n      eq\n      tag_145\n      jumpi\n        /* \"#utility.yul\":8210:8211   */\n      0x00\n        /* \"#utility.yul\":8227:8233   */\n      dup5\n        /* \"#utility.yul\":8224:8301   */\n      iszero\n      tag_146\n      jumpi\n        /* \"#utility.yul\":8276:8285   */\n      dup3\n        /* \"#utility.yul\":8271:8274   */\n      dup8\n        /* \"#utility.yul\":8267:8286   */\n      add\n        /* \"#utility.yul\":8261:8287   */\n      mload\n        /* \"#utility.yul\":8252:8287   */\n      swap1\n      pop\n        /* \"#utility.yul\":8224:8301   */\n    tag_146:\n        /* \"#utility.yul\":8327:8394   */\n      tag_147\n        /* \"#utility.yul\":8387:8393   */\n      dup6\n        /* \"#utility.yul\":8380:8385   */\n      dup3\n        /* \"#utility.yul\":8327:8394   */\n      tag_58\n      jump\t// in\n    tag_147:\n        /* \"#utility.yul\":8321:8325   */\n      dup7\n        /* \"#utility.yul\":8314:8395   */\n      sstore\n        /* \"#utility.yul\":8183:8405   */\n      pop\n        /* \"#utility.yul\":7518:8405   */\n      jump(tag_144)\n        /* \"#utility.yul\":7548:8166   */\n    tag_145:\n        /* \"#utility.yul\":7600:7604   */\n      0x1f\n        /* \"#utility.yul\":7596:7605   */\n      not\n        /* \"#utility.yul\":7588:7594   */\n      dup5\n        /* \"#utility.yul\":7584:7606   */\n      and\n        /* \"#utility.yul\":7634:7671   */\n      tag_148\n        /* \"#utility.yul\":7666:7670   */\n      dup7\n        /* \"#utility.yul\":7634:7671   */\n      tag_44\n      jump\t// in\n    tag_148:\n        /* \"#utility.yul\":7693:7694   */\n      0x00\n        /* \"#utility.yul\":7707:7915   */\n    tag_149:\n        /* \"#utility.yul\":7721:7728   */\n      dup3\n        /* \"#utility.yul\":7718:7719   */\n      dup2\n        /* \"#utility.yul\":7715:7729   */\n      lt\n        /* \"#utility.yul\":7707:7915   */\n      iszero\n      tag_151\n      jumpi\n        /* \"#utility.yul\":7800:7809   */\n      dup5\n        /* \"#utility.yul\":7795:7798   */\n      dup10\n        /* \"#utility.yul\":7791:7810   */\n      add\n        /* \"#utility.yul\":7785:7811   */\n      mload\n        /* \"#utility.yul\":7777:7783   */\n      dup3\n        /* \"#utility.yul\":7770:7812   */\n      sstore\n        /* \"#utility.yul\":7851:7852   */\n      0x01\n        /* \"#utility.yul\":7843:7849   */\n      dup3\n        /* \"#utility.yul\":7839:7853   */\n      add\n        /* \"#utility.yul\":7829:7853   */\n      swap2\n      pop\n        /* \"#utility.yul\":7898:7900   */\n      0x20\n        /* \"#utility.yul\":7887:7896   */\n      dup6\n        /* \"#utility.yul\":7883:7901   */\n      add\n        /* \"#utility.yul\":7870:7901   */\n      swap5\n      pop\n        /* \"#utility.yul\":7744:7748   */\n      0x20\n        /* \"#utility.yul\":7741:7742   */\n      dup2\n        /* \"#utility.yul\":7737:7749   */\n      add\n        /* \"#utility.yul\":7732:7749   */\n      swap1\n      pop\n        /* \"#utility.yul\":7707:7915   */\n      jump(tag_149)\n    tag_151:\n        /* \"#utility.yul\":7943:7949   */\n      dup7\n        /* \"#utility.yul\":7934:7941   */\n      dup4\n        /* \"#utility.yul\":7931:7950   */\n      lt\n        /* \"#utility.yul\":7928:8107   */\n      iszero\n      tag_152\n      jumpi\n        /* \"#utility.yul\":8001:8010   */\n      dup5\n        /* \"#utility.yul\":7996:7999   */\n      dup10\n        /* \"#utility.yul\":7992:8011   */\n      add\n        /* \"#utility.yul\":7986:8012   */\n      mload\n        /* \"#utility.yul\":8044:8092   */\n      tag_153\n        /* \"#utility.yul\":8086:8090   */\n      0x1f\n        /* \"#utility.yul\":8078:8084   */\n      dup10\n        /* \"#utility.yul\":8074:8091   */\n      and\n        /* \"#utility.yul\":8063:8072   */\n      dup3\n        /* \"#utility.yul\":8044:8092   */\n      tag_57\n      jump\t// in\n    tag_153:\n        /* \"#utility.yul\":8036:8042   */\n      dup4\n        /* \"#utility.yul\":8029:8093   */\n      sstore\n        /* \"#utility.yul\":7951:8107   */\n      pop\n        /* \"#utility.yul\":7928:8107   */\n    tag_152:\n        /* \"#utility.yul\":8153:8154   */\n      0x01\n        /* \"#utility.yul\":8149:8150   */\n      0x02\n        /* \"#utility.yul\":8141:8147   */\n      dup9\n        /* \"#utility.yul\":8137:8151   */\n      mul\n        /* \"#utility.yul\":8133:8155   */\n      add\n        /* \"#utility.yul\":8127:8131   */\n      dup9\n        /* \"#utility.yul\":8120:8156   */\n      sstore\n        /* \"#utility.yul\":7555:8166   */\n      pop\n      pop\n      pop\n        /* \"#utility.yul\":7518:8405   */\n    tag_144:\n      pop\n        /* \"#utility.yul\":7108:8411   */\n      pop\n      pop\n      pop\n        /* \"#utility.yul\":7016:8411   */\n      pop\n      pop\n      jump\t// out\n\n    auxdata: 0xa26469706673582212201e85a9534a749a566e2db7131edad7df1a27feed0740a268566e9704ffa3e2bf64736f6c634300081f0033\n}\n",
				"bytecode": {
					"linkReferences": {},
					"object": "6080604052348015600e575f5ffd5b506107188061001c5f395ff3fe608060405234801561000f575f5ffd5b506004361061003f575f3560e01c80631aa3a008146100435780633d40327c1461004d5780639e5faafc14610080575b5f5ffd5b61004b61009f565b005b610067600480360381019061006291906102be565b61016b565b6040516100779493929190610371565b60405180910390f35b61008861021c565b6040516100969291906103bb565b60405180910390f35b60405180608001604052806040518060400160405280600681526020017f4b6e6967687400000000000000000000000000000000000000000000000000008152508152602001601481526020016005815260200160028152505f5f3373ffffffffffffffffffffffffffffffffffffffff1673ffffffffffffffffffffffffffffffffffffffff1681526020019081526020015f205f820151815f0190816101479190610613565b50602082015181600101556040820151816002015560608201518160030155905050565b5f602052805f5260405f205f91509050805f01805461018990610443565b80601f01602080910402602001604051908101604052809291908181526020018280546101b590610443565b80156102005780601f106101d757610100808354040283529160200191610200565b820191905f5260205f20905b8154815290600101906020018083116101e357829003601f168201915b5050505050908060010154908060020154908060030154905084565b60605f60196040518060400160405280600b81526020017f536869656c64204261736800000000000000000000000000000000000000000081525090915091509091565b5f5ffd5b5f73ffffffffffffffffffffffffffffffffffffffff82169050919050565b5f61028d82610264565b9050919050565b61029d81610283565b81146102a7575f5ffd5b50565b5f813590506102b881610294565b92915050565b5f602082840312156102d3576102d2610260565b5b5f6102e0848285016102aa565b91505092915050565b5f81519050919050565b5f82825260208201905092915050565b8281835e5f83830152505050565b5f601f19601f8301169050919050565b5f61032b826102e9565b61033581856102f3565b9350610345818560208601610303565b61034e81610311565b840191505092915050565b5f819050919050565b61036b81610359565b82525050565b5f6080820190508181035f8301526103898187610321565b90506103986020830186610362565b6103a56040830185610362565b6103b26060830184610362565b95945050505050565b5f6040820190508181035f8301526103d38185610321565b90506103e26020830184610362565b9392505050565b7f4e487b71000000000000000000000000000000000000000000000000000000005f52604160045260245ffd5b7f4e487b71000000000000000000000000000000000000000000000000000000005f52602260045260245ffd5b5f600282049050600182168061045a57607f821691505b60208210810361046d5761046c610416565b5b50919050565b5f819050815f5260205f209050919050565b5f6020601f8301049050919050565b5f82821b905092915050565b5f600883026104cf7fffffffffffffffffffffffffffffffffffffffffffffffffffffffffffffffff82610494565b6104d98683610494565b95508019841693508086168417925050509392505050565b5f819050919050565b5f61051461050f61050a84610359565b6104f1565b610359565b9050919050565b5f819050919050565b61052d836104fa565b6105416105398261051b565b8484546104a0565b825550505050565b5f5f905090565b610558610549565b610563818484610524565b505050565b5b818110156105865761057b5f82610550565b600181019050610569565b5050565b601f8211156105cb5761059c81610473565b6105a584610485565b810160208510156105b4578190505b6105c86105c085610485565b830182610568565b50505b505050565b5f82821c905092915050565b5f6105eb5f19846008026105d0565b1980831691505092915050565b5f61060383836105dc565b9150826002028217905092915050565b61061c826102e9565b67ffffffffffffffff811115610635576106346103e9565b5b61063f8254610443565b61064a82828561058a565b5f60209050601f83116001811461067b575f8415610669578287015190505b61067385826105f8565b8655506106da565b601f19841661068986610473565b5f5b828110156106b05784890151825560018201915060208501945060208101905061068b565b868310156106cd57848901516106c9601f8916826105dc565b8355505b6001600288020188555050505b50505050505056fea26469706673582212201e85a9534a749a566e2db7131edad7df1a27feed0740a268566e9704ffa3e2bf64736f6c634300081f0033",
					"opcodes": "PUSH1 0x80 PUSH1 0x40 MSTORE CALLVALUE DUP1 ISZERO PUSH1 0xE JUMPI PUSH0 PUSH0 REVERT JUMPDEST POP PUSH2 0x718 DUP1 PUSH2 0x1C PUSH0 CODECOPY PUSH0 RETURN INVALID PUSH1 0x80 PUSH1 0x40 MSTORE CALLVALUE DUP1 ISZERO PUSH2 0xF JUMPI PUSH0 PUSH0 REVERT JUMPDEST POP PUSH1 0x4 CALLDATASIZE LT PUSH2 0x3F JUMPI PUSH0 CALLDATALOAD PUSH1 0xE0 SHR DUP1 PUSH4 0x1AA3A008 EQ PUSH2 0x43 JUMPI DUP1 PUSH4 0x3D40327C EQ PUSH2 0x4D JUMPI DUP1 PUSH4 0x9E5FAAFC EQ PUSH2 0x80 JUMPI JUMPDEST PUSH0 PUSH0 REVERT JUMPDEST PUSH2 0x4B PUSH2 0x9F JUMP JUMPDEST STOP JUMPDEST PUSH2 0x67 PUSH1 0x4 DUP1 CALLDATASIZE SUB DUP2 ADD SWAP1 PUSH2 0x62 SWAP2 SWAP1 PUSH2 0x2BE JUMP JUMPDEST PUSH2 0x16B JUMP JUMPDEST PUSH1 0x40 MLOAD PUSH2 0x77 SWAP5 SWAP4 SWAP3 SWAP2 SWAP1 PUSH2 0x371 JUMP JUMPDEST PUSH1 0x40 MLOAD DUP1 SWAP2 SUB SWAP1 RETURN JUMPDEST PUSH2 0x88 PUSH2 0x21C JUMP JUMPDEST PUSH1 0x40 MLOAD PUSH2 0x96 SWAP3 SWAP2 SWAP1 PUSH2 0x3BB JUMP JUMPDEST PUSH1 0x40 MLOAD DUP1 SWAP2 SUB SWAP1 RETURN JUMPDEST PUSH1 0x40 MLOAD DUP1 PUSH1 0x80 ADD PUSH1 0x40 MSTORE DUP1 PUSH1 0x40 MLOAD DUP1 PUSH1 0x40 ADD PUSH1 0x40 MSTORE DUP1 PUSH1 0x6 DUP2 MSTORE PUSH1 0x20 ADD PUSH32 0x4B6E696768740000000000000000000000000000000000000000000000000000 DUP2 MSTORE POP DUP2 MSTORE PUSH1 0x20 ADD PUSH1 0x14 DUP2 MSTORE PUSH1 0x20 ADD PUSH1 0x5 DUP2 MSTORE PUSH1 0x20 ADD PUSH1 0x2 DUP2 MSTORE POP PUSH0 PUSH0 CALLER PUSH20 0xFFFFFFFFFFFFFFFFFFFFFFFFFFFFFFFFFFFFFFFF AND PUSH20 0xFFFFFFFFFFFFFFFFFFFFFFFFFFFFFFFFFFFFFFFF AND DUP2 MSTORE PUSH1 0x20 ADD SWAP1 DUP2 MSTORE PUSH1 0x20 ADD PUSH0 KECCAK256 PUSH0 DUP3 ADD MLOAD DUP2 PUSH0 ADD SWAP1 DUP2 PUSH2 0x147 SWAP2 SWAP1 PUSH2 0x613 JUMP JUMPDEST POP PUSH1 0x20 DUP3 ADD MLOAD DUP2 PUSH1 0x1 ADD SSTORE PUSH1 0x40 DUP3 ADD MLOAD DUP2 PUSH1 0x2 ADD SSTORE PUSH1 0x60 DUP3 ADD MLOAD DUP2 PUSH1 0x3 ADD SSTORE SWAP1 POP POP JUMP JUMPDEST PUSH0 PUSH1 0x20 MSTORE DUP1 PUSH0 MSTORE PUSH1 0x40 PUSH0 KECCAK256 PUSH0 SWAP2 POP SWAP1 POP DUP1 PUSH0 ADD DUP1 SLOAD PUSH2 0x189 SWAP1 PUSH2 0x443 JUMP JUMPDEST DUP1 PUSH1 0x1F ADD PUSH1 0x20 DUP1 SWAP2 DIV MUL PUSH1 0x20 ADD PUSH1 0x40 MLOAD SWAP1 DUP2 ADD PUSH1 0x40 MSTORE DUP1 SWAP3 SWAP2 SWAP1 DUP2 DUP2 MSTORE PUSH1 0x20 ADD DUP3 DUP1 SLOAD PUSH2 0x1B5 SWAP1 PUSH2 0x443 JUMP JUMPDEST DUP1 ISZERO PUSH2 0x200 JUMPI DUP1 PUSH1 0x1F LT PUSH2 0x1D7 JUMPI PUSH2 0x100 DUP1 DUP4 SLOAD DIV MUL DUP4 MSTORE SWAP2 PUSH1 0x20 ADD SWAP2 PUSH2 0x200 JUMP JUMPDEST DUP3 ADD SWAP2 SWAP1 PUSH0 MSTORE PUSH1 0x20 PUSH0 KECCAK256 SWAP1 JUMPDEST DUP2 SLOAD DUP2 MSTORE SWAP1 PUSH1 0x1 ADD SWAP1 PUSH1 0x20 ADD DUP1 DUP4 GT PUSH2 0x1E3 JUMPI DUP3 SWAP1 SUB PUSH1 0x1F AND DUP3 ADD SWAP2 JUMPDEST POP POP POP POP POP SWAP1 DUP1 PUSH1 0x1 ADD SLOAD SWAP1 DUP1 PUSH1 0x2 ADD SLOAD SWAP1 DUP1 PUSH1 0x3 ADD SLOAD SWAP1 POP DUP5 JUMP JUMPDEST PUSH1 0x60 PUSH0 PUSH1 0x19 PUSH1 0x40 MLOAD DUP1 PUSH1 0x40 ADD PUSH1 0x40 MSTORE DUP1 PUSH1 0xB DUP2 MSTORE PUSH1 0x20 ADD PUSH32 0x536869656C642042617368000000000000000000000000000000000000000000 DUP2 MSTORE POP SWAP1 SWAP2 POP SWAP2 POP SWAP1 SWAP2 JUMP JUMPDEST PUSH0 PUSH0 REVERT JUMPDEST PUSH0 PUSH20 0xFFFFFFFFFFFFFFFFFFFFFFFFFFFFFFFFFFFFFFFF DUP3 AND SWAP1 POP SWAP2 SWAP1 POP JUMP JUMPDEST PUSH0 PUSH2 0x28D DUP3 PUSH2 0x264 JUMP JUMPDEST SWAP1 POP SWAP2 SWAP1 POP JUMP JUMPDEST PUSH2 0x29D DUP2 PUSH2 0x283 JUMP JUMPDEST DUP2 EQ PUSH2 0x2A7 JUMPI PUSH0 PUSH0 REVERT JUMPDEST POP JUMP JUMPDEST PUSH0 DUP2 CALLDATALOAD SWAP1 POP PUSH2 0x2B8 DUP2 PUSH2 0x294 JUMP JUMPDEST SWAP3 SWAP2 POP POP JUMP JUMPDEST PUSH0 PUSH1 0x20 DUP3 DUP5 SUB SLT ISZERO PUSH2 0x2D3 JUMPI PUSH2 0x2D2 PUSH2 0x260 JUMP JUMPDEST JUMPDEST PUSH0 PUSH2 0x2E0 DUP5 DUP3 DUP6 ADD PUSH2 0x2AA JUMP JUMPDEST SWAP2 POP POP SWAP3 SWAP2 POP POP JUMP JUMPDEST PUSH0 DUP2 MLOAD SWAP1 POP SWAP2 SWAP1 POP JUMP JUMPDEST PUSH0 DUP3 DUP3 MSTORE PUSH1 0x20 DUP3 ADD SWAP1 POP SWAP3 SWAP2 POP POP JUMP JUMPDEST DUP3 DUP2 DUP4 MCOPY PUSH0 DUP4 DUP4 ADD MSTORE POP POP POP JUMP JUMPDEST PUSH0 PUSH1 0x1F NOT PUSH1 0x1F DUP4 ADD AND SWAP1 POP SWAP2 SWAP1 POP JUMP JUMPDEST PUSH0 PUSH2 0x32B DUP3 PUSH2 0x2E9 JUMP JUMPDEST PUSH2 0x335 DUP2 DUP6 PUSH2 0x2F3 JUMP JUMPDEST SWAP4 POP PUSH2 0x345 DUP2 DUP6 PUSH1 0x20 DUP7 ADD PUSH2 0x303 JUMP JUMPDEST PUSH2 0x34E DUP2 PUSH2 0x311 JUMP JUMPDEST DUP5 ADD SWAP2 POP POP SWAP3 SWAP2 POP POP JUMP JUMPDEST PUSH0 DUP2 SWAP1 POP SWAP2 SWAP1 POP JUMP JUMPDEST PUSH2 0x36B DUP2 PUSH2 0x359 JUMP JUMPDEST DUP3 MSTORE POP POP JUMP JUMPDEST PUSH0 PUSH1 0x80 DUP3 ADD SWAP1 POP DUP2 DUP2 SUB PUSH0 DUP4 ADD MSTORE PUSH2 0x389 DUP2 DUP8 PUSH2 0x321 JUMP JUMPDEST SWAP1 POP PUSH2 0x398 PUSH1 0x20 DUP4 ADD DUP7 PUSH2 0x362 JUMP JUMPDEST PUSH2 0x3A5 PUSH1 0x40 DUP4 ADD DUP6 PUSH2 0x362 JUMP JUMPDEST PUSH2 0x3B2 PUSH1 0x60 DUP4 ADD DUP5 PUSH2 0x362 JUMP JUMPDEST SWAP6 SWAP5 POP POP POP POP POP JUMP JUMPDEST PUSH0 PUSH1 0x40 DUP3 ADD SWAP1 POP DUP2 DUP2 SUB PUSH0 DUP4 ADD MSTORE PUSH2 0x3D3 DUP2 DUP6 PUSH2 0x321 JUMP JUMPDEST SWAP1 POP PUSH2 0x3E2 PUSH1 0x20 DUP4 ADD DUP5 PUSH2 0x362 JUMP JUMPDEST SWAP4 SWAP3 POP POP POP JUMP JUMPDEST PUSH32 0x4E487B7100000000000000000000000000000000000000000000000000000000 PUSH0 MSTORE PUSH1 0x41 PUSH1 0x4 MSTORE PUSH1 0x24 PUSH0 REVERT JUMPDEST PUSH32 0x4E487B7100000000000000000000000000000000000000000000000000000000 PUSH0 MSTORE PUSH1 0x22 PUSH1 0x4 MSTORE PUSH1 0x24 PUSH0 REVERT JUMPDEST PUSH0 PUSH1 0x2 DUP3 DIV SWAP1 POP PUSH1 0x1 DUP3 AND DUP1 PUSH2 0x45A JUMPI PUSH1 0x7F DUP3 AND SWAP2 POP JUMPDEST PUSH1 0x20 DUP3 LT DUP2 SUB PUSH2 0x46D JUMPI PUSH2 0x46C PUSH2 0x416 JUMP JUMPDEST JUMPDEST POP SWAP2 SWAP1 POP JUMP JUMPDEST PUSH0 DUP2 SWAP1 POP DUP2 PUSH0 MSTORE PUSH1 0x20 PUSH0 KECCAK256 SWAP1 POP SWAP2 SWAP1 POP JUMP JUMPDEST PUSH0 PUSH1 0x20 PUSH1 0x1F DUP4 ADD DIV SWAP1 POP SWAP2 SWAP1 POP JUMP JUMPDEST PUSH0 DUP3 DUP3 SHL SWAP1 POP SWAP3 SWAP2 POP POP JUMP JUMPDEST PUSH0 PUSH1 0x8 DUP4 MUL PUSH2 0x4CF PUSH32 0xFFFFFFFFFFFFFFFFFFFFFFFFFFFFFFFFFFFFFFFFFFFFFFFFFFFFFFFFFFFFFFFF DUP3 PUSH2 0x494 JUMP JUMPDEST PUSH2 0x4D9 DUP7 DUP4 PUSH2 0x494 JUMP JUMPDEST SWAP6 POP DUP1 NOT DUP5 AND SWAP4 POP DUP1 DUP7 AND DUP5 OR SWAP3 POP POP POP SWAP4 SWAP3 POP POP POP JUMP JUMPDEST PUSH0 DUP2 SWAP1 POP SWAP2 SWAP1 POP JUMP JUMPDEST PUSH0 PUSH2 0x514 PUSH2 0x50F PUSH2 0x50A DUP5 PUSH2 0x359 JUMP JUMPDEST PUSH2 0x4F1 JUMP JUMPDEST PUSH2 0x359 JUMP JUMPDEST SWAP1 POP SWAP2 SWAP1 POP JUMP JUMPDEST PUSH0 DUP2 SWAP1 POP SWAP2 SWAP1 POP JUMP JUMPDEST PUSH2 0x52D DUP4 PUSH2 0x4FA JUMP JUMPDEST PUSH2 0x541 PUSH2 0x539 DUP3 PUSH2 0x51B JUMP JUMPDEST DUP5 DUP5 SLOAD PUSH2 0x4A0 JUMP JUMPDEST DUP3 SSTORE POP POP POP POP JUMP JUMPDEST PUSH0 PUSH0 SWAP1 POP SWAP1 JUMP JUMPDEST PUSH2 0x558 PUSH2 0x549 JUMP JUMPDEST PUSH2 0x563 DUP2 DUP5 DUP5 PUSH2 0x524 JUMP JUMPDEST POP POP POP JUMP JUMPDEST JUMPDEST DUP2 DUP2 LT ISZERO PUSH2 0x586 JUMPI PUSH2 0x57B PUSH0 DUP3 PUSH2 0x550 JUMP JUMPDEST PUSH1 0x1 DUP2 ADD SWAP1 POP PUSH2 0x569 JUMP JUMPDEST POP POP JUMP JUMPDEST PUSH1 0x1F DUP3 GT ISZERO PUSH2 0x5CB JUMPI PUSH2 0x59C DUP2 PUSH2 0x473 JUMP JUMPDEST PUSH2 0x5A5 DUP5 PUSH2 0x485 JUMP JUMPDEST DUP2 ADD PUSH1 0x20 DUP6 LT ISZERO PUSH2 0x5B4 JUMPI DUP2 SWAP1 POP JUMPDEST PUSH2 0x5C8 PUSH2 0x5C0 DUP6 PUSH2 0x485 JUMP JUMPDEST DUP4 ADD DUP3 PUSH2 0x568 JUMP JUMPDEST POP POP JUMPDEST POP POP POP JUMP JUMPDEST PUSH0 DUP3 DUP3 SHR SWAP1 POP SWAP3 SWAP2 POP POP JUMP JUMPDEST PUSH0 PUSH2 0x5EB PUSH0 NOT DUP5 PUSH1 0x8 MUL PUSH2 0x5D0 JUMP JUMPDEST NOT DUP1 DUP4 AND SWAP2 POP POP SWAP3 SWAP2 POP POP JUMP JUMPDEST PUSH0 PUSH2 0x603 DUP4 DUP4 PUSH2 0x5DC JUMP JUMPDEST SWAP2 POP DUP3 PUSH1 0x2 MUL DUP3 OR SWAP1 POP SWAP3 SWAP2 POP POP JUMP JUMPDEST PUSH2 0x61C DUP3 PUSH2 0x2E9 JUMP JUMPDEST PUSH8 0xFFFFFFFFFFFFFFFF DUP2 GT ISZERO PUSH2 0x635 JUMPI PUSH2 0x634 PUSH2 0x3E9 JUMP JUMPDEST JUMPDEST PUSH2 0x63F DUP3 SLOAD PUSH2 0x443 JUMP JUMPDEST PUSH2 0x64A DUP3 DUP3 DUP6 PUSH2 0x58A JUMP JUMPDEST PUSH0 PUSH1 0x20 SWAP1 POP PUSH1 0x1F DUP4 GT PUSH1 0x1 DUP2 EQ PUSH2 0x67B JUMPI PUSH0 DUP5 ISZERO PUSH2 0x669 JUMPI DUP3 DUP8 ADD MLOAD SWAP1 POP JUMPDEST PUSH2 0x673 DUP6 DUP3 PUSH2 0x5F8 JUMP JUMPDEST DUP7 SSTORE POP PUSH2 0x6DA JUMP JUMPDEST PUSH1 0x1F NOT DUP5 AND PUSH2 0x689 DUP7 PUSH2 0x473 JUMP JUMPDEST PUSH0 JUMPDEST DUP3 DUP2 LT ISZERO PUSH2 0x6B0 JUMPI DUP5 DUP10 ADD MLOAD DUP3 SSTORE PUSH1 0x1 DUP3 ADD SWAP2 POP PUSH1 0x20 DUP6 ADD SWAP5 POP PUSH1 0x20 DUP2 ADD SWAP1 POP PUSH2 0x68B JUMP JUMPDEST DUP7 DUP4 LT ISZERO PUSH2 0x6CD JUMPI DUP5 DUP10 ADD MLOAD PUSH2 0x6C9 PUSH1 0x1F DUP10 AND DUP3 PUSH2 0x5DC JUMP JUMPDEST DUP4 SSTORE POP JUMPDEST PUSH1 0x1 PUSH1 0x2 DUP9 MUL ADD DUP9 SSTORE POP POP POP JUMPDEST POP POP POP POP POP POP JUMP INVALID LOG2 PUSH5 0x6970667358 0x22 SLT KECCAK256 CLZ DUP6 0xA9 MSTORE8 BLOBBASEFEE PUSH21 0x9A566E2DB7131EDAD7DF1A27FEED0740A268566E97 DIV SELFDESTRUCT LOG3 0xE2 0xBF PUSH5 0x736F6C6343 STOP ADDMOD 0x1F STOP CALLER "
				},
				"gasEstimates": {
					"creation": {
						"codeDepositCost": "363200",
						"executionCost": "397",
						"totalCost": "363597"
					},
					"external": {
						"attack()": "infinite",
						"register()": "infinite",
						"warriors(address)": "infinite"
					}
				},
				"methodIdentifiers": {
					"attack()": "9e5faafc",
					"register()": "1aa3a008",
					"warriors(address)": "3d40327c"
				}
			},
			"storageLayout": {
				"storage": [
					{
						"astId": 15,
						"contract": "contracts/warrior.sol:Knight",
						"label": "warriors",
						"offset": 0,
						"slot": "0",
						"type": "t_mapping(t_address,t_struct(Stats)10_storage)"
					}
				],
				"types": {
					"t_address": {
						"encoding": "inplace",
						"label": "address",
						"numberOfBytes": "20"
					},
					"t_mapping(t_address,t_struct(Stats)10_storage)": {
						"encoding": "mapping",
						"key": "t_address",
						"label": "mapping(address => struct WarriorGuild.Stats)",
						"numberOfBytes": "32",
						"value": "t_struct(Stats)10_storage"
					},
					"t_string_storage": {
						"encoding": "bytes",
						"label": "string",
						"numberOfBytes": "32"
					},
					"t_struct(Stats)10_storage": {
						"encoding": "inplace",
						"label": "struct WarriorGuild.Stats",
						"members": [
							{
								"astId": 3,
								"contract": "contracts/warrior.sol:Knight",
								"label": "className",
								"offset": 0,
								"slot": "0",
								"type": "t_string_storage"
							},
							{
								"astId": 5,
								"contract": "contracts/warrior.sol:Knight",
								"label": "strength",
								"offset": 0,
								"slot": "1",
								"type": "t_uint256"
							},
							{
								"astId": 7,
								"contract": "contracts/warrior.sol:Knight",
								"label": "agility",
								"offset": 0,
								"slot": "2",
								"type": "t_uint256"
							},
							{
								"astId": 9,
								"contract": "contracts/warrior.sol:Knight",
								"label": "magic",
								"offset": 0,
								"slot": "3",
								"type": "t_uint256"
							}
						],
						"numberOfBytes": "128"
					},
					"t_uint256": {
						"encoding": "inplace",
						"label": "uint256",
						"numberOfBytes": "32"
					}
				}
			},
			"userdoc": {
				"kind": "user",
				"methods": {},
				"version": 1
			}
		}
	}
}